{
  "_format": "hh3-artifact-1",
  "contractName": "ProveMeWrong",
  "sourceName": "contracts/ProveMeWrong.sol",
  "abi": [
    {
      "inputs": [],
      "stateMutability": "nonpayable",
      "type": "constructor"
    },
    {
      "inputs": [],
      "name": "FailedDeployment",
      "type": "error"
    },
    {
      "inputs": [
        {
          "internalType": "uint256",
          "name": "balance",
          "type": "uint256"
        },
        {
          "internalType": "uint256",
          "name": "needed",
          "type": "uint256"
        }
      ],
      "name": "InsufficientBalance",
      "type": "error"
    },
    {
      "inputs": [
        {
          "internalType": "bytes32",
          "name": "marketId",
          "type": "bytes32"
        },
        {
          "internalType": "bytes32",
          "name": "requestHash",
          "type": "bytes32"
        },
        {
          "internalType": "uint256",
          "name": "yesPrice",
          "type": "uint256"
        },
        {
          "internalType": "uint256",
          "name": "noPrice",
          "type": "uint256"
        },
        {
          "internalType": "address",
          "name": "pool",
          "type": "address"
        }
      ],
      "name": "createMarket",
      "outputs": [],
      "stateMutability": "nonpayable",
      "type": "function"
    },
    {
      "inputs": [
        {
          "internalType": "address",
          "name": "asset",
          "type": "address"
        },
        {
          "internalType": "address",
          "name": "owner",
          "type": "address"
        }
      ],
      "name": "createPool",
      "outputs": [
        {
          "internalType": "address",
          "name": "",
          "type": "address"
        }
      ],
      "stateMutability": "nonpayable",
      "type": "function"
    },
    {
      "inputs": [
        {
          "internalType": "bytes32",
          "name": "marketId",
          "type": "bytes32"
        }
      ],
      "name": "getMarket",
      "outputs": [
        {
          "internalType": "address",
          "name": "",
          "type": "address"
        },
        {
          "internalType": "address",
          "name": "",
          "type": "address"
        },
        {
          "internalType": "uint256",
          "name": "",
          "type": "uint256"
        },
        {
          "internalType": "uint256",
          "name": "",
          "type": "uint256"
        },
        {
          "internalType": "address",
          "name": "",
          "type": "address"
        },
        {
          "internalType": "uint256",
          "name": "",
          "type": "uint256"
        }
      ],
      "stateMutability": "view",
      "type": "function"
    },
    {
      "inputs": [
        {
          "internalType": "bytes32",
          "name": "marketId",
          "type": "bytes32"
        },
        {
          "internalType": "uint256",
          "name": "amount",
          "type": "uint256"
        },
        {
          "internalType": "bool",
          "name": "outcome",
          "type": "bool"
        }
      ],
      "name": "mint",
      "outputs": [],
      "stateMutability": "nonpayable",
      "type": "function"
    },
    {
      "inputs": [],
      "name": "pmw20Implementation",
      "outputs": [
        {
          "internalType": "address",
          "name": "",
          "type": "address"
        }
      ],
      "stateMutability": "view",
      "type": "function"
    },
    {
      "inputs": [],
      "name": "pmwPoolImplementation",
      "outputs": [
        {
          "internalType": "address",
          "name": "",
          "type": "address"
        }
      ],
      "stateMutability": "view",
      "type": "function"
    },
    {
      "inputs": [
        {
          "internalType": "bytes32",
          "name": "marketId",
          "type": "bytes32"
        },
        {
          "internalType": "address",
          "name": "account",
          "type": "address"
        }
      ],
      "name": "redeem",
      "outputs": [],
      "stateMutability": "nonpayable",
      "type": "function"
    },
    {
      "inputs": [
        {
          "internalType": "bytes32",
          "name": "marketId",
          "type": "bytes32"
        },
        {
          "components": [
            {
              "internalType": "bytes32[]",
              "name": "merkleProof",
              "type": "bytes32[]"
            },
            {
              "components": [
                {
                  "internalType": "bytes32",
                  "name": "attestationType",
                  "type": "bytes32"
                },
                {
                  "internalType": "bytes32",
                  "name": "sourceId",
                  "type": "bytes32"
                },
                {
                  "internalType": "uint64",
                  "name": "votingRound",
                  "type": "uint64"
                },
                {
                  "internalType": "uint64",
                  "name": "lowestUsedTimestamp",
                  "type": "uint64"
                },
                {
                  "components": [
                    {
                      "internalType": "string",
                      "name": "url",
                      "type": "string"
                    },
                    {
                      "internalType": "string",
                      "name": "httpMethod",
                      "type": "string"
                    },
                    {
                      "internalType": "string",
                      "name": "headers",
                      "type": "string"
                    },
                    {
                      "internalType": "string",
                      "name": "queryParams",
                      "type": "string"
                    },
                    {
                      "internalType": "string",
                      "name": "body",
                      "type": "string"
                    },
                    {
                      "internalType": "string",
                      "name": "postProcessJq",
                      "type": "string"
                    },
                    {
                      "internalType": "string",
                      "name": "abiSignature",
                      "type": "string"
                    }
                  ],
                  "internalType": "struct IWeb2Json.RequestBody",
                  "name": "requestBody",
                  "type": "tuple"
                },
                {
                  "components": [
                    {
                      "internalType": "bytes",
                      "name": "abiEncodedData",
                      "type": "bytes"
                    }
                  ],
                  "internalType": "struct IWeb2Json.ResponseBody",
                  "name": "responseBody",
                  "type": "tuple"
                }
              ],
              "internalType": "struct IWeb2Json.Response",
              "name": "data",
              "type": "tuple"
            }
          ],
          "internalType": "struct IWeb2Json.Proof",
          "name": "data",
          "type": "tuple"
        }
      ],
      "name": "resolveMarket",
      "outputs": [],
      "stateMutability": "nonpayable",
      "type": "function"
    }
  ],
  "bytecode": "0x60c060405234801561000f575f5ffd5b5060405161001c906100c7565b604051809103905ff080158015610035573d5f5f3e3d5ffd5b5073ffffffffffffffffffffffffffffffffffffffff1660808173ffffffffffffffffffffffffffffffffffffffff1681525050604051610075906100d4565b604051809103905ff08015801561008e573d5f5f3e3d5ffd5b5073ffffffffffffffffffffffffffffffffffffffff1660a08173ffffffffffffffffffffffffffffffffffffffff16815250506100e1565b611e62806130d483390190565b610c9580614f3683390190565b60805160a051612fb661011e5f395f81816101c1015261137301525f818161019d01528181610361015281816103f301526113b90152612fb65ff3fe608060405234801561000f575f5ffd5b5060043610610086575f3560e01c8063beb6d08111610059578063beb6d081146100fe578063c3c95c7b1461011a578063cc3bf9e91461014f578063e34336151461016b57610086565b80634f4aa01a1461008a5780635b3a5314146100a857806371bb890c146100c65780639a99adb3146100e2575b5f5ffd5b61009261019b565b60405161009f9190611a76565b60405180910390f35b6100b06101bf565b6040516100bd9190611a76565b60405180910390f35b6100e060048036038101906100db9190611b30565b6101e3565b005b6100fc60048036038101906100f79190611bc9565b610609565b005b61011860048036038101906101139190611c58565b610af1565b005b610134600480360381019061012f9190611ca8565b610f1d565b60405161014696959493929190611ce2565b60405180910390f35b61016960048036038101906101649190611d41565b61100d565b005b61018560048036038101906101809190611d7f565b61136c565b6040516101929190611a76565b60405180910390f35b7f000000000000000000000000000000000000000000000000000000000000000081565b7f000000000000000000000000000000000000000000000000000000000000000081565b6101ec8561142f565b1561022c576040517f08c379a000000000000000000000000000000000000000000000000000000000815260040161022390611e17565b60405180910390fd5b3373ffffffffffffffffffffffffffffffffffffffff168173ffffffffffffffffffffffffffffffffffffffff16638da5cb5b6040518163ffffffff1660e01b8152600401602060405180830381865afa15801561028c573d5f5f3e3d5ffd5b505050506040513d601f19601f820116820180604052508101906102b09190611e49565b73ffffffffffffffffffffffffffffffffffffffff1614610306576040517f08c379a00000000000000000000000000000000000000000000000000000000081526004016102fd90611ebe565b60405180910390fd5b670de0b6b3a7640000828461031b9190611f09565b1461035b576040517f08c379a000000000000000000000000000000000000000000000000000000000815260040161035290611f86565b60405180910390fd5b5f6103857f000000000000000000000000000000000000000000000000000000000000000061144f565b90508073ffffffffffffffffffffffffffffffffffffffff1663077f224a306040518263ffffffff1660e01b81526004016103c09190612038565b5f604051808303815f87803b1580156103d7575f5ffd5b505af11580156103e9573d5f5f3e3d5ffd5b505050505f6104177f000000000000000000000000000000000000000000000000000000000000000061144f565b90508073ffffffffffffffffffffffffffffffffffffffff1663077f224a306040518263ffffffff1660e01b8152600401610452919061210b565b5f604051808303815f87803b158015610469575f5ffd5b505af115801561047b573d5f5f3e3d5ffd5b505050506040518060e001604052808781526020018373ffffffffffffffffffffffffffffffffffffffff1681526020018273ffffffffffffffffffffffffffffffffffffffff1681526020018681526020018581526020018473ffffffffffffffffffffffffffffffffffffffff16815260200160028152505f5f8981526020019081526020015f205f820151815f01556020820151816001015f6101000a81548173ffffffffffffffffffffffffffffffffffffffff021916908373ffffffffffffffffffffffffffffffffffffffff1602179055506040820151816002015f6101000a81548173ffffffffffffffffffffffffffffffffffffffff021916908373ffffffffffffffffffffffffffffffffffffffff160217905550606082015181600301556080820151816004015560a0820151816005015f6101000a81548173ffffffffffffffffffffffffffffffffffffffff021916908373ffffffffffffffffffffffffffffffffffffffff16021790555060c0820151816006015590505050505050505050565b61061281611461565b610651576040517f08c379a000000000000000000000000000000000000000000000000000000000815260040161064890612194565b60405180910390fd5b61065a8261142f565b610699576040517f08c379a0000000000000000000000000000000000000000000000000000000008152600401610690906121fc565b60405180910390fd5b6106a2826114e8565b156106e2576040517f08c379a00000000000000000000000000000000000000000000000000000000081526004016106d990612264565b60405180910390fd5b6109f98180602001906106f5919061228e565b806080019061070491906122b5565b805f019061071291906122dc565b8080601f0160208091040260200160405190810160405280939291908181526020018383808284375f81840152601f19601f82011690508083019250505050505050828060200190610764919061228e565b806080019061077391906122b5565b806020019061078291906122dc565b8080601f0160208091040260200160405190810160405280939291908181526020018383808284375f81840152601f19601f820116905080830192505050505050508380602001906107d4919061228e565b80608001906107e391906122b5565b80604001906107f291906122dc565b8080601f0160208091040260200160405190810160405280939291908181526020018383808284375f81840152601f19601f82011690508083019250505050505050848060200190610844919061228e565b806080019061085391906122b5565b806060019061086291906122dc565b8080601f0160208091040260200160405190810160405280939291908181526020018383808284375f81840152601f19601f820116905080830192505050505050508580602001906108b4919061228e565b80608001906108c391906122b5565b80608001906108d291906122dc565b8080601f0160208091040260200160405190810160405280939291908181526020018383808284375f81840152601f19601f82011690508083019250505050505050868060200190610924919061228e565b806080019061093391906122b5565b8060a0019061094291906122dc565b8080601f0160208091040260200160405190810160405280939291908181526020018383808284375f81840152601f19601f82011690508083019250505050505050878060200190610994919061228e565b80608001906109a391906122b5565b8060c001906109b291906122dc565b8080601f0160208091040260200160405190810160405280939291908181526020018383808284375f81840152601f19601f82011690508083019250505050505050611508565b5f5f8481526020019081526020015f205f015414610a4c576040517f08c379a0000000000000000000000000000000000000000000000000000000008152600401610a4390612388565b60405180910390fd5b5f818060200190610a5d919061228e565b8060a00190610a6c91906123a6565b805f0190610a7a91906123cd565b810190610a8791906124f4565b90505f815f0151905060028103610ad3576040517f08c379a0000000000000000000000000000000000000000000000000000000008152600401610aca90612569565b60405180910390fd5b805f5f8681526020019081526020015f206006018190555050505050565b610afa8361142f565b610b39576040517f08c379a0000000000000000000000000000000000000000000000000000000008152600401610b30906121fc565b60405180910390fd5b610b42836114e8565b15610b82576040517f08c379a0000000000000000000000000000000000000000000000000000000008152600401610b7990612264565b60405180910390fd5b5f8203610bc4576040517f08c379a0000000000000000000000000000000000000000000000000000000008152600401610bbb906125d1565b60405180910390fd5b5f670de0b6b3a764000066038d7ea4c6800084610be191906125ef565b610beb919061265d565b90505f8184610bfa919061268d565b90505f5f8681526020019081526020015f206005015f9054906101000a900473ffffffffffffffffffffffffffffffffffffffff1673ffffffffffffffffffffffffffffffffffffffff166338d52e0f6040518163ffffffff1660e01b8152600401602060405180830381865afa158015610c77573d5f5f3e3d5ffd5b505050506040513d601f19601f82011682018060405250810190610c9b9190611e49565b73ffffffffffffffffffffffffffffffffffffffff166323b872dd335f5f8981526020019081526020015f206005015f9054906101000a900473ffffffffffffffffffffffffffffffffffffffff16876040518463ffffffff1660e01b8152600401610d09939291906126c0565b6020604051808303815f875af1158015610d25573d5f5f3e3d5ffd5b505050506040513d601f19601f82011682018060405250810190610d499190612709565b505f6001151584151503610d90575f5f8781526020019081526020015f2060030154670de0b6b3a764000083610d7f91906125ef565b610d89919061265d565b9050610dc5565b5f5f8781526020019081526020015f2060040154670de0b6b3a764000083610db891906125ef565b610dc2919061265d565b90505b6001151584151503610e70575f5f8781526020019081526020015f206001015f9054906101000a900473ffffffffffffffffffffffffffffffffffffffff1673ffffffffffffffffffffffffffffffffffffffff166340c10f1933836040518363ffffffff1660e01b8152600401610e3e929190612734565b5f604051808303815f87803b158015610e55575f5ffd5b505af1158015610e67573d5f5f3e3d5ffd5b50505050610f0b565b5f5f8781526020019081526020015f206002015f9054906101000a900473ffffffffffffffffffffffffffffffffffffffff1673ffffffffffffffffffffffffffffffffffffffff166340c10f1933836040518363ffffffff1660e01b8152600401610edd929190612734565b5f604051808303815f87803b158015610ef4575f5ffd5b505af1158015610f06573d5f5f3e3d5ffd5b505050505b610f158685611549565b505050505050565b5f5f5f5f5f5f5f5f8881526020019081526020015f206001015f9054906101000a900473ffffffffffffffffffffffffffffffffffffffff165f5f8981526020019081526020015f206002015f9054906101000a900473ffffffffffffffffffffffffffffffffffffffff165f5f8a81526020019081526020015f20600301545f5f8b81526020019081526020015f20600401545f5f8c81526020019081526020015f206005015f9054906101000a900473ffffffffffffffffffffffffffffffffffffffff165f5f8d81526020019081526020015f206006015495509550955095509550955091939550919395565b6110168261142f565b611055576040517f08c379a000000000000000000000000000000000000000000000000000000000815260040161104c906121fc565b60405180910390fd5b61105e826114e8565b61109d576040517f08c379a000000000000000000000000000000000000000000000000000000000815260040161109490612569565b60405180910390fd5b5f60015f5f8581526020019081526020015f2060060154146110f1575f5f8481526020019081526020015f206002015f9054906101000a900473ffffffffffffffffffffffffffffffffffffffff16611125565b5f5f8481526020019081526020015f206001015f9054906101000a900473ffffffffffffffffffffffffffffffffffffffff165b90505f8173ffffffffffffffffffffffffffffffffffffffff166370a08231846040518263ffffffff1660e01b81526004016111619190611a76565b602060405180830381865afa15801561117c573d5f5f3e3d5ffd5b505050506040513d601f19601f820116820180604052508101906111a0919061276f565b90505f81036111e4576040517f08c379a00000000000000000000000000000000000000000000000000000000081526004016111db906127e4565b60405180910390fd5b8173ffffffffffffffffffffffffffffffffffffffff166379cc679084836040518363ffffffff1660e01b815260040161121f929190612734565b5f604051808303815f87803b158015611236575f5ffd5b505af1158015611248573d5f5f3e3d5ffd5b505050505f5f8581526020019081526020015f206005015f9054906101000a900473ffffffffffffffffffffffffffffffffffffffff1673ffffffffffffffffffffffffffffffffffffffff166338d52e0f6040518163ffffffff1660e01b8152600401602060405180830381865afa1580156112c7573d5f5f3e3d5ffd5b505050506040513d601f19601f820116820180604052508101906112eb9190611e49565b73ffffffffffffffffffffffffffffffffffffffff1663a9059cbb84836040518363ffffffff1660e01b8152600401611325929190612734565b6020604051808303815f875af1158015611341573d5f5f3e3d5ffd5b505050506040513d601f19601f820116820180604052508101906113659190612709565b5050505050565b5f5f6113977f000000000000000000000000000000000000000000000000000000000000000061144f565b90508073ffffffffffffffffffffffffffffffffffffffff1663f8c8765e85307f0000000000000000000000000000000000000000000000000000000000000000876040518563ffffffff1660e01b81526004016113f89493929190612802565b5f604051808303815f87803b15801561140f575f5ffd5b505af1158015611421573d5f5f3e3d5ffd5b505050508091505092915050565b5f5f5f1b5f5f8481526020019081526020015f205f015414159050919050565b5f61145a825f61188c565b9050919050565b5f61146a611981565b73ffffffffffffffffffffffffffffffffffffffff1663d2d3a41f836040518263ffffffff1660e01b81526004016114a29190612dbb565b602060405180830381865afa1580156114bd573d5f5f3e3d5ffd5b505050506040513d601f19601f820116820180604052508101906114e19190612709565b9050919050565b5f60025f5f8481526020019081526020015f206006015414159050919050565b5f878787878787876040516020016115269796959493929190612e2b565b604051602081830303815290604052805190602001209050979650505050505050565b5f5f5f8481526020019081526020015f2090505f816001015f9054906101000a900473ffffffffffffffffffffffffffffffffffffffff1673ffffffffffffffffffffffffffffffffffffffff166318160ddd6040518163ffffffff1660e01b8152600401602060405180830381865afa1580156115c9573d5f5f3e3d5ffd5b505050506040513d601f19601f820116820180604052508101906115ed919061276f565b90505f826002015f9054906101000a900473ffffffffffffffffffffffffffffffffffffffff1673ffffffffffffffffffffffffffffffffffffffff166318160ddd6040518163ffffffff1660e01b8152600401602060405180830381865afa15801561165c573d5f5f3e3d5ffd5b505050506040513d601f19601f82011682018060405250810190611680919061276f565b90505f818361168f9190611f09565b90505f66038d7ea4c680009050670de0b6b3a764000082111561170757600a670de0b6b3a7640000836116c2919061268d565b6116cc919061265d565b670de0b6b3a76400006116df9190611f09565b670de0b6b3a764000066038d7ea4c680006116fa91906125ef565b611704919061265d565b90505b6001151586151503611796575f670de0b6b3a764000086600301548361172d91906125ef565b611737919061265d565b90505f670de0b6b3a764000087600401548461175391906125ef565b61175d919061265d565b905081876003015461176f9190611f09565b8760030181905550808760040154611787919061268d565b87600401819055505050611815565b5f670de0b6b3a76400008660040154836117b091906125ef565b6117ba919061265d565b90505f670de0b6b3a76400008760030154846117d691906125ef565b6117e0919061265d565b90508187600401546117f29190611f09565b876004018190555080876003015461180a919061268d565b876003018190555050505b5f8560040154866003015461182a9190611f09565b905080670de0b6b3a7640000876003015461184591906125ef565b61184f919061265d565b866003018190555080670de0b6b3a7640000876004015461187091906125ef565b61187a919061265d565b86600401819055505050505050505050565b5f814710156118d45747826040517fcf4791810000000000000000000000000000000000000000000000000000000081526004016118cb929190612ec9565b60405180910390fd5b763d602d80600a3d3981f3363d3d373d3d3d363d730000008360601b60e81c175f526e5af43d82803e903d91602b57fd5bf38360781b176020526037600983f090505f73ffffffffffffffffffffffffffffffffffffffff168173ffffffffffffffffffffffffffffffffffffffff160361197b576040517fb06ebf3d00000000000000000000000000000000000000000000000000000000815260040160405180910390fd5b92915050565b5f73ad67fe66660fb8dfe9d6b1b4240d8650e30f601973ffffffffffffffffffffffffffffffffffffffff1663159354a26040516020016119c190612f3a565b604051602081830303815290604052805190602001206040518263ffffffff1660e01b81526004016119f39190612f67565b602060405180830381865afa158015611a0e573d5f5f3e3d5ffd5b505050506040513d601f19601f82011682018060405250810190611a329190611e49565b905090565b5f73ffffffffffffffffffffffffffffffffffffffff82169050919050565b5f611a6082611a37565b9050919050565b611a7081611a56565b82525050565b5f602082019050611a895f830184611a67565b92915050565b5f604051905090565b5f5ffd5b5f5ffd5b5f819050919050565b611ab281611aa0565b8114611abc575f5ffd5b50565b5f81359050611acd81611aa9565b92915050565b5f819050919050565b611ae581611ad3565b8114611aef575f5ffd5b50565b5f81359050611b0081611adc565b92915050565b611b0f81611a56565b8114611b19575f5ffd5b50565b5f81359050611b2a81611b06565b92915050565b5f5f5f5f5f60a08688031215611b4957611b48611a98565b5b5f611b5688828901611abf565b9550506020611b6788828901611abf565b9450506040611b7888828901611af2565b9350506060611b8988828901611af2565b9250506080611b9a88828901611b1c565b9150509295509295909350565b5f5ffd5b5f60408284031215611bc057611bbf611ba7565b5b81905092915050565b5f5f60408385031215611bdf57611bde611a98565b5b5f611bec85828601611abf565b925050602083013567ffffffffffffffff811115611c0d57611c0c611a9c565b5b611c1985828601611bab565b9150509250929050565b5f8115159050919050565b611c3781611c23565b8114611c41575f5ffd5b50565b5f81359050611c5281611c2e565b92915050565b5f5f5f60608486031215611c6f57611c6e611a98565b5b5f611c7c86828701611abf565b9350506020611c8d86828701611af2565b9250506040611c9e86828701611c44565b9150509250925092565b5f60208284031215611cbd57611cbc611a98565b5b5f611cca84828501611abf565b91505092915050565b611cdc81611ad3565b82525050565b5f60c082019050611cf55f830189611a67565b611d026020830188611a67565b611d0f6040830187611cd3565b611d1c6060830186611cd3565b611d296080830185611a67565b611d3660a0830184611cd3565b979650505050505050565b5f5f60408385031215611d5757611d56611a98565b5b5f611d6485828601611abf565b9250506020611d7585828601611b1c565b9150509250929050565b5f5f60408385031215611d9557611d94611a98565b5b5f611da285828601611b1c565b9250506020611db385828601611b1c565b9150509250929050565b5f82825260208201905092915050565b7f4d61726b657420616c72656164792065786973747300000000000000000000005f82015250565b5f611e01601583611dbd565b9150611e0c82611dcd565b602082019050919050565b5f6020820190508181035f830152611e2e81611df5565b9050919050565b5f81519050611e4381611b06565b92915050565b5f60208284031215611e5e57611e5d611a98565b5b5f611e6b84828501611e35565b91505092915050565b7f506f6f6c206e6f74206f776e65642062792063616c6c657200000000000000005f82015250565b5f611ea8601883611dbd565b9150611eb382611e74565b602082019050919050565b5f6020820190508181035f830152611ed581611e9c565b9050919050565b7f4e487b71000000000000000000000000000000000000000000000000000000005f52601160045260245ffd5b5f611f1382611ad3565b9150611f1e83611ad3565b9250828201905080821115611f3657611f35611edc565b5b92915050565b7f507269636573206d7573742073756d20746f20313030250000000000000000005f82015250565b5f611f70601783611dbd565b9150611f7b82611f3c565b602082019050919050565b5f6020820190508181035f830152611f9d81611f64565b9050919050565b7f79657300000000000000000000000000000000000000000000000000000000005f82015250565b5f611fd8600383611dbd565b9150611fe382611fa4565b602082019050919050565b7f59455300000000000000000000000000000000000000000000000000000000005f82015250565b5f612022600383611dbd565b915061202d82611fee565b602082019050919050565b5f6060820190508181035f83015261204f81611fcc565b9050818103602083015261206281612016565b90506120716040830184611a67565b92915050565b7f6e6f0000000000000000000000000000000000000000000000000000000000005f82015250565b5f6120ab600283611dbd565b91506120b682612077565b602082019050919050565b7f4e4f0000000000000000000000000000000000000000000000000000000000005f82015250565b5f6120f5600283611dbd565b9150612100826120c1565b602082019050919050565b5f6060820190508181035f8301526121228161209f565b90508181036020830152612135816120e9565b90506121446040830184611a67565b92915050565b7f496e76616c69642070726f6f66000000000000000000000000000000000000005f82015250565b5f61217e600d83611dbd565b91506121898261214a565b602082019050919050565b5f6020820190508181035f8301526121ab81612172565b9050919050565b7f4d61726b657420646f6573206e6f7420657869737400000000000000000000005f82015250565b5f6121e6601583611dbd565b91506121f1826121b2565b602082019050919050565b5f6020820190508181035f830152612213816121da565b9050919050565b7f4d61726b657420616c7265616479207265736f6c7665640000000000000000005f82015250565b5f61224e601783611dbd565b91506122598261221a565b602082019050919050565b5f6020820190508181035f83015261227b81612242565b9050919050565b5f5ffd5b5f5ffd5b5f5ffd5b5f8235600160c0038336030381126122a9576122a8612282565b5b80830191505092915050565b5f8235600160e0038336030381126122d0576122cf612282565b5b80830191505092915050565b5f5f833560016020038436030381126122f8576122f7612282565b5b80840192508235915067ffffffffffffffff82111561231a57612319612286565b5b6020830192506001820236038313156123365761233561228a565b5b509250929050565b7f496e76616c6964207265717565737420686173680000000000000000000000005f82015250565b5f612372601483611dbd565b915061237d8261233e565b602082019050919050565b5f6020820190508181035f83015261239f81612366565b9050919050565b5f823560016020038336030381126123c1576123c0612282565b5b80830191505092915050565b5f5f833560016020038436030381126123e9576123e8612282565b5b80840192508235915067ffffffffffffffff82111561240b5761240a612286565b5b6020830192506001820236038313156124275761242661228a565b5b509250929050565b5f5ffd5b5f601f19601f8301169050919050565b7f4e487b71000000000000000000000000000000000000000000000000000000005f52604160045260245ffd5b61247982612433565b810181811067ffffffffffffffff8211171561249857612497612443565b5b80604052505050565b5f6124aa611a8f565b90506124b68282612470565b919050565b5f602082840312156124d0576124cf61242f565b5b6124da60206124a1565b90505f6124e984828501611af2565b5f8301525092915050565b5f6020828403121561250957612508611a98565b5b5f612516848285016124bb565b91505092915050565b7f4d61726b6574206e6f74207265736f6c766564000000000000000000000000005f82015250565b5f612553601383611dbd565b915061255e8261251f565b602082019050919050565b5f6020820190508181035f83015261258081612547565b9050919050565b7f416d6f756e74206d7573742062652067726561746572207468616e20300000005f82015250565b5f6125bb601d83611dbd565b91506125c682612587565b602082019050919050565b5f6020820190508181035f8301526125e8816125af565b9050919050565b5f6125f982611ad3565b915061260483611ad3565b925082820261261281611ad3565b9150828204841483151761262957612628611edc565b5b5092915050565b7f4e487b71000000000000000000000000000000000000000000000000000000005f52601260045260245ffd5b5f61266782611ad3565b915061267283611ad3565b92508261268257612681612630565b5b828204905092915050565b5f61269782611ad3565b91506126a283611ad3565b92508282039050818111156126ba576126b9611edc565b5b92915050565b5f6060820190506126d35f830186611a67565b6126e06020830185611a67565b6126ed6040830184611cd3565b949350505050565b5f8151905061270381611c2e565b92915050565b5f6020828403121561271e5761271d611a98565b5b5f61272b848285016126f5565b91505092915050565b5f6040820190506127475f830185611a67565b6127546020830184611cd3565b9392505050565b5f8151905061276981611adc565b92915050565b5f6020828403121561278457612783611a98565b5b5f6127918482850161275b565b91505092915050565b7f4e6f20746f6b656e7320746f2072656465656d000000000000000000000000005f82015250565b5f6127ce601383611dbd565b91506127d98261279a565b602082019050919050565b5f6020820190508181035f8301526127fb816127c2565b9050919050565b5f6080820190506128155f830187611a67565b6128226020830186611a67565b61282f6040830185611a67565b61283c6060830184611a67565b95945050505050565b5f5ffd5b5f5ffd5b5f5ffd5b5f5f8335600160200384360303811261286d5761286c61284d565b5b83810192508235915060208301925067ffffffffffffffff82111561289557612894612845565b5b6020820236038313156128ab576128aa612849565b5b509250929050565b5f82825260208201905092915050565b5f5ffd5b82818337505050565b5f6128db83856128b3565b93507f07ffffffffffffffffffffffffffffffffffffffffffffffffffffffffffffff83111561290e5761290d6128c3565b5b60208302925061291f8385846128c7565b82840190509392505050565b5f8235600160c0038336030381126129465761294561284d565b5b82810191505092915050565b5f6129606020840184611abf565b905092915050565b61297181611aa0565b82525050565b5f67ffffffffffffffff82169050919050565b61299381612977565b811461299d575f5ffd5b50565b5f813590506129ae8161298a565b92915050565b5f6129c260208401846129a0565b905092915050565b6129d381612977565b82525050565b5f8235600160e0038336030381126129f4576129f361284d565b5b82810191505092915050565b5f5f83356001602003843603038112612a1c57612a1b61284d565b5b83810192508235915060208301925067ffffffffffffffff821115612a4457612a43612845565b5b600182023603831315612a5a57612a59612849565b5b509250929050565b5f82825260208201905092915050565b828183375f83830152505050565b5f612a8b8385612a62565b9350612a98838584612a72565b612aa183612433565b840190509392505050565b5f60e08301612abd5f840184612a00565b8583035f870152612acf838284612a80565b92505050612ae06020840184612a00565b8583036020870152612af3838284612a80565b92505050612b046040840184612a00565b8583036040870152612b17838284612a80565b92505050612b286060840184612a00565b8583036060870152612b3b838284612a80565b92505050612b4c6080840184612a00565b8583036080870152612b5f838284612a80565b92505050612b7060a0840184612a00565b85830360a0870152612b83838284612a80565b92505050612b9460c0840184612a00565b85830360c0870152612ba7838284612a80565b925050508091505092915050565b5f82356001602003833603038112612bd057612bcf61284d565b5b82810191505092915050565b5f5f83356001602003843603038112612bf857612bf761284d565b5b83810192508235915060208301925067ffffffffffffffff821115612c2057612c1f612845565b5b600182023603831315612c3657612c35612849565b5b509250929050565b5f82825260208201905092915050565b5f612c598385612c3e565b9350612c66838584612a72565b612c6f83612433565b840190509392505050565b5f60208301612c8b5f840184612bdc565b8583035f870152612c9d838284612c4e565b925050508091505092915050565b5f60c08301612cbc5f840184612952565b612cc85f860182612968565b50612cd66020840184612952565b612ce36020860182612968565b50612cf160408401846129b4565b612cfe60408601826129ca565b50612d0c60608401846129b4565b612d1960608601826129ca565b50612d2760808401846129d9565b8482036080860152612d398282612aac565b915050612d4960a0840184612bb5565b84820360a0860152612d5b8282612c7a565b9150508091505092915050565b5f60408301612d795f840184612851565b8583035f870152612d8b8382846128d0565b92505050612d9c602084018461292b565b8482036020860152612dae8282612cab565b9150508091505092915050565b5f6020820190508181035f830152612dd38184612d68565b905092915050565b5f81519050919050565b8281835e5f83830152505050565b5f612dfd82612ddb565b612e078185611dbd565b9350612e17818560208601612de5565b612e2081612433565b840191505092915050565b5f60e0820190508181035f830152612e43818a612df3565b90508181036020830152612e578189612df3565b90508181036040830152612e6b8188612df3565b90508181036060830152612e7f8187612df3565b90508181036080830152612e938186612df3565b905081810360a0830152612ea78185612df3565b905081810360c0830152612ebb8184612df3565b905098975050505050505050565b5f604082019050612edc5f830185611cd3565b612ee96020830184611cd3565b9392505050565b7f466463566572696669636174696f6e00000000000000000000000000000000005f82015250565b5f612f24600f83611dbd565b9150612f2f82612ef0565b602082019050919050565b5f6020820190508181035f830152612f5181612f18565b9050919050565b612f6181611aa0565b82525050565b5f602082019050612f7a5f830184612f58565b9291505056fea2646970667358221220f6197c6623fcbbf3b8b0995ff5aecff55386916bd984fb934ab1ee4313e1f4f364736f6c634300081c0033608060405234801561000f575f5ffd5b50600160405180602001604052805f81525060405180602001604052805f815250816003908161003f91906103d7565b50806004908161004f91906103d7565b5050505f73ffffffffffffffffffffffffffffffffffffffff168173ffffffffffffffffffffffffffffffffffffffff16036100c2575f6040517f1e4fbdf70000000000000000000000000000000000000000000000000000000081526004016100b991906104e5565b60405180910390fd5b6100d1816100d760201b60201c565b506104fe565b5f60055f9054906101000a900473ffffffffffffffffffffffffffffffffffffffff1690508160055f6101000a81548173ffffffffffffffffffffffffffffffffffffffff021916908373ffffffffffffffffffffffffffffffffffffffff1602179055508173ffffffffffffffffffffffffffffffffffffffff168173ffffffffffffffffffffffffffffffffffffffff167f8be0079c531659141344cd1fd0a4f28419497f9722a3daafe3b4186f6b6457e060405160405180910390a35050565b5f81519050919050565b7f4e487b71000000000000000000000000000000000000000000000000000000005f52604160045260245ffd5b7f4e487b71000000000000000000000000000000000000000000000000000000005f52602260045260245ffd5b5f600282049050600182168061021557607f821691505b602082108103610228576102276101d1565b5b50919050565b5f819050815f5260205f209050919050565b5f6020601f8301049050919050565b5f82821b905092915050565b5f6008830261028a7fffffffffffffffffffffffffffffffffffffffffffffffffffffffffffffffff8261024f565b610294868361024f565b95508019841693508086168417925050509392505050565b5f819050919050565b5f819050919050565b5f6102d86102d36102ce846102ac565b6102b5565b6102ac565b9050919050565b5f819050919050565b6102f1836102be565b6103056102fd826102df565b84845461025b565b825550505050565b5f5f905090565b61031c61030d565b6103278184846102e8565b505050565b5b8181101561034a5761033f5f82610314565b60018101905061032d565b5050565b601f82111561038f576103608161022e565b61036984610240565b81016020851015610378578190505b61038c61038485610240565b83018261032c565b50505b505050565b5f82821c905092915050565b5f6103af5f1984600802610394565b1980831691505092915050565b5f6103c783836103a0565b9150826002028217905092915050565b6103e08261019a565b67ffffffffffffffff8111156103f9576103f86101a4565b5b61040382546101fe565b61040e82828561034e565b5f60209050601f83116001811461043f575f841561042d578287015190505b61043785826103bc565b86555061049e565b601f19841661044d8661022e565b5f5b828110156104745784890151825560018201915060208501945060208101905061044f565b86831015610491578489015161048d601f8916826103a0565b8355505b6001600288020188555050505b505050505050565b5f73ffffffffffffffffffffffffffffffffffffffff82169050919050565b5f6104cf826104a6565b9050919050565b6104df816104c5565b82525050565b5f6020820190506104f85f8301846104d6565b92915050565b6119578061050b5f395ff3fe608060405234801561000f575f5ffd5b50600436106100fe575f3560e01c806370a082311161009557806395d89b411161006457806395d89b4114610284578063a9059cbb146102a2578063dd62ed3e146102d2578063f2fde38b14610302576100fe565b806370a0823114610210578063715018a61461024057806379cc67901461024a5780638da5cb5b14610266576100fe565b806323b872dd116100d157806323b872dd1461018a578063313ce567146101ba57806340c10f19146101d857806342966c68146101f4576100fe565b806306fdde0314610102578063077f224a14610120578063095ea7b31461013c57806318160ddd1461016c575b5f5ffd5b61010a61031e565b6040516101179190611110565b60405180910390f35b61013a600480360381019061013591906112c7565b6103ae565b005b61015660048036038101906101519190611382565b610551565b60405161016391906113da565b60405180910390f35b610174610573565b6040516101819190611402565b60405180910390f35b6101a4600480360381019061019f919061141b565b61057c565b6040516101b191906113da565b60405180910390f35b6101c26105aa565b6040516101cf9190611486565b60405180910390f35b6101f260048036038101906101ed9190611382565b6105b2565b005b61020e6004803603810190610209919061149f565b6105c8565b005b61022a600480360381019061022591906114ca565b6105d4565b6040516102379190611402565b60405180910390f35b610248610619565b005b610264600480360381019061025f9190611382565b61062c565b005b61026e610684565b60405161027b9190611504565b60405180910390f35b61028c6106ac565b6040516102999190611110565b60405180910390f35b6102bc60048036038101906102b79190611382565b61073c565b6040516102c991906113da565b60405180910390f35b6102ec60048036038101906102e7919061151d565b61075e565b6040516102f99190611402565b60405180910390f35b61031c600480360381019061031791906114ca565b6107e0565b005b60606006805461032d90611588565b80601f016020809104026020016040519081016040528092919081815260200182805461035990611588565b80156103a45780601f1061037b576101008083540402835291602001916103a4565b820191905f5260205f20905b81548152906001019060200180831161038757829003601f168201915b5050505050905090565b5f6103b7610864565b90505f815f0160089054906101000a900460ff161590505f825f015f9054906101000a900467ffffffffffffffff1690505f5f8267ffffffffffffffff161480156103ff5750825b90505f60018367ffffffffffffffff1614801561043257505f3073ffffffffffffffffffffffffffffffffffffffff163b145b905081158015610440575080155b15610477576040517ff92ee8a900000000000000000000000000000000000000000000000000000000815260040160405180910390fd5b6001855f015f6101000a81548167ffffffffffffffff021916908367ffffffffffffffff16021790555083156104c4576001855f0160086101000a81548160ff0219169083151502179055505b87600690816104d39190611758565b5086600790816104e39190611758565b506104ed86610877565b8315610547575f855f0160086101000a81548160ff0219169083151502179055507fc7f505b2f371ae2175ee4913f4499e1f2633a7b5936321eed1cdaeb6115181d2600160405161053e9190611873565b60405180910390a15b5050505050505050565b5f5f61055b61093a565b9050610568818585610941565b600191505092915050565b5f600254905090565b5f5f61058661093a565b9050610593858285610953565b61059e8585856109e6565b60019150509392505050565b5f6012905090565b6105ba610ad6565b6105c48282610b5d565b5050565b6105d181610bdc565b50565b5f5f5f8373ffffffffffffffffffffffffffffffffffffffff1673ffffffffffffffffffffffffffffffffffffffff1681526020019081526020015f20549050919050565b610621610ad6565b61062a5f610877565b565b610634610684565b73ffffffffffffffffffffffffffffffffffffffff163373ffffffffffffffffffffffffffffffffffffffff1603610675576106708282610bf0565b610680565b61067f8282610c6f565b5b5050565b5f60055f9054906101000a900473ffffffffffffffffffffffffffffffffffffffff16905090565b6060600780546106bb90611588565b80601f01602080910402602001604051908101604052809291908181526020018280546106e790611588565b80156107325780601f1061070957610100808354040283529160200191610732565b820191905f5260205f20905b81548152906001019060200180831161071557829003601f168201915b5050505050905090565b5f5f61074661093a565b90506107538185856109e6565b600191505092915050565b5f60015f8473ffffffffffffffffffffffffffffffffffffffff1673ffffffffffffffffffffffffffffffffffffffff1681526020019081526020015f205f8373ffffffffffffffffffffffffffffffffffffffff1673ffffffffffffffffffffffffffffffffffffffff1681526020019081526020015f2054905092915050565b6107e8610ad6565b5f73ffffffffffffffffffffffffffffffffffffffff168173ffffffffffffffffffffffffffffffffffffffff1603610858575f6040517f1e4fbdf700000000000000000000000000000000000000000000000000000000815260040161084f9190611504565b60405180910390fd5b61086181610877565b50565b5f5f61086e610c8f565b90508091505090565b5f60055f9054906101000a900473ffffffffffffffffffffffffffffffffffffffff1690508160055f6101000a81548173ffffffffffffffffffffffffffffffffffffffff021916908373ffffffffffffffffffffffffffffffffffffffff1602179055508173ffffffffffffffffffffffffffffffffffffffff168173ffffffffffffffffffffffffffffffffffffffff167f8be0079c531659141344cd1fd0a4f28419497f9722a3daafe3b4186f6b6457e060405160405180910390a35050565b5f33905090565b61094e8383836001610cb8565b505050565b5f61095e848461075e565b90507fffffffffffffffffffffffffffffffffffffffffffffffffffffffffffffffff8110156109e057818110156109d1578281836040517ffb8f41b20000000000000000000000000000000000000000000000000000000081526004016109c89392919061188c565b60405180910390fd5b6109df84848484035f610cb8565b5b50505050565b5f73ffffffffffffffffffffffffffffffffffffffff168373ffffffffffffffffffffffffffffffffffffffff1603610a56575f6040517f96c6fd1e000000000000000000000000000000000000000000000000000000008152600401610a4d9190611504565b60405180910390fd5b5f73ffffffffffffffffffffffffffffffffffffffff168273ffffffffffffffffffffffffffffffffffffffff1603610ac6575f6040517fec442f05000000000000000000000000000000000000000000000000000000008152600401610abd9190611504565b60405180910390fd5b610ad1838383610e87565b505050565b610ade61093a565b73ffffffffffffffffffffffffffffffffffffffff16610afc610684565b73ffffffffffffffffffffffffffffffffffffffff1614610b5b57610b1f61093a565b6040517f118cdaa7000000000000000000000000000000000000000000000000000000008152600401610b529190611504565b60405180910390fd5b565b5f73ffffffffffffffffffffffffffffffffffffffff168273ffffffffffffffffffffffffffffffffffffffff1603610bcd575f6040517fec442f05000000000000000000000000000000000000000000000000000000008152600401610bc49190611504565b60405180910390fd5b610bd85f8383610e87565b5050565b610bed610be761093a565b82610bf0565b50565b5f73ffffffffffffffffffffffffffffffffffffffff168273ffffffffffffffffffffffffffffffffffffffff1603610c60575f6040517f96c6fd1e000000000000000000000000000000000000000000000000000000008152600401610c579190611504565b60405180910390fd5b610c6b825f83610e87565b5050565b610c8182610c7b61093a565b83610953565b610c8b8282610bf0565b5050565b5f7ff0c57e16840df040f15088dc2f81fe391c3923bec73e23a9662efc9c229c6a005f1b905090565b5f73ffffffffffffffffffffffffffffffffffffffff168473ffffffffffffffffffffffffffffffffffffffff1603610d28575f6040517fe602df05000000000000000000000000000000000000000000000000000000008152600401610d1f9190611504565b60405180910390fd5b5f73ffffffffffffffffffffffffffffffffffffffff168373ffffffffffffffffffffffffffffffffffffffff1603610d98575f6040517f94280d62000000000000000000000000000000000000000000000000000000008152600401610d8f9190611504565b60405180910390fd5b8160015f8673ffffffffffffffffffffffffffffffffffffffff1673ffffffffffffffffffffffffffffffffffffffff1681526020019081526020015f205f8573ffffffffffffffffffffffffffffffffffffffff1673ffffffffffffffffffffffffffffffffffffffff1681526020019081526020015f20819055508015610e81578273ffffffffffffffffffffffffffffffffffffffff168473ffffffffffffffffffffffffffffffffffffffff167f8c5be1e5ebec7d5bd14f71427d1e84f3dd0314c0f7b2291e5b200ac8c7c3b92584604051610e789190611402565b60405180910390a35b50505050565b5f73ffffffffffffffffffffffffffffffffffffffff168373ffffffffffffffffffffffffffffffffffffffff1603610ed7578060025f828254610ecb91906118ee565b92505081905550610fa5565b5f5f5f8573ffffffffffffffffffffffffffffffffffffffff1673ffffffffffffffffffffffffffffffffffffffff1681526020019081526020015f2054905081811015610f60578381836040517fe450d38c000000000000000000000000000000000000000000000000000000008152600401610f579392919061188c565b60405180910390fd5b8181035f5f8673ffffffffffffffffffffffffffffffffffffffff1673ffffffffffffffffffffffffffffffffffffffff1681526020019081526020015f2081905550505b5f73ffffffffffffffffffffffffffffffffffffffff168273ffffffffffffffffffffffffffffffffffffffff1603610fec578060025f8282540392505081905550611036565b805f5f8473ffffffffffffffffffffffffffffffffffffffff1673ffffffffffffffffffffffffffffffffffffffff1681526020019081526020015f205f82825401925050819055505b8173ffffffffffffffffffffffffffffffffffffffff168373ffffffffffffffffffffffffffffffffffffffff167fddf252ad1be2c89b69c2b068fc378daa952ba7f163c4a11628f55a4df523b3ef836040516110939190611402565b60405180910390a3505050565b5f81519050919050565b5f82825260208201905092915050565b8281835e5f83830152505050565b5f601f19601f8301169050919050565b5f6110e2826110a0565b6110ec81856110aa565b93506110fc8185602086016110ba565b611105816110c8565b840191505092915050565b5f6020820190508181035f83015261112881846110d8565b905092915050565b5f604051905090565b5f5ffd5b5f5ffd5b5f5ffd5b5f5ffd5b7f4e487b71000000000000000000000000000000000000000000000000000000005f52604160045260245ffd5b61117f826110c8565b810181811067ffffffffffffffff8211171561119e5761119d611149565b5b80604052505050565b5f6111b0611130565b90506111bc8282611176565b919050565b5f67ffffffffffffffff8211156111db576111da611149565b5b6111e4826110c8565b9050602081019050919050565b828183375f83830152505050565b5f61121161120c846111c1565b6111a7565b90508281526020810184848401111561122d5761122c611145565b5b6112388482856111f1565b509392505050565b5f82601f83011261125457611253611141565b5b81356112648482602086016111ff565b91505092915050565b5f73ffffffffffffffffffffffffffffffffffffffff82169050919050565b5f6112968261126d565b9050919050565b6112a68161128c565b81146112b0575f5ffd5b50565b5f813590506112c18161129d565b92915050565b5f5f5f606084860312156112de576112dd611139565b5b5f84013567ffffffffffffffff8111156112fb576112fa61113d565b5b61130786828701611240565b935050602084013567ffffffffffffffff8111156113285761132761113d565b5b61133486828701611240565b9250506040611345868287016112b3565b9150509250925092565b5f819050919050565b6113618161134f565b811461136b575f5ffd5b50565b5f8135905061137c81611358565b92915050565b5f5f6040838503121561139857611397611139565b5b5f6113a5858286016112b3565b92505060206113b68582860161136e565b9150509250929050565b5f8115159050919050565b6113d4816113c0565b82525050565b5f6020820190506113ed5f8301846113cb565b92915050565b6113fc8161134f565b82525050565b5f6020820190506114155f8301846113f3565b92915050565b5f5f5f6060848603121561143257611431611139565b5b5f61143f868287016112b3565b9350506020611450868287016112b3565b92505060406114618682870161136e565b9150509250925092565b5f60ff82169050919050565b6114808161146b565b82525050565b5f6020820190506114995f830184611477565b92915050565b5f602082840312156114b4576114b3611139565b5b5f6114c18482850161136e565b91505092915050565b5f602082840312156114df576114de611139565b5b5f6114ec848285016112b3565b91505092915050565b6114fe8161128c565b82525050565b5f6020820190506115175f8301846114f5565b92915050565b5f5f6040838503121561153357611532611139565b5b5f611540858286016112b3565b9250506020611551858286016112b3565b9150509250929050565b7f4e487b71000000000000000000000000000000000000000000000000000000005f52602260045260245ffd5b5f600282049050600182168061159f57607f821691505b6020821081036115b2576115b161155b565b5b50919050565b5f819050815f5260205f209050919050565b5f6020601f8301049050919050565b5f82821b905092915050565b5f600883026116147fffffffffffffffffffffffffffffffffffffffffffffffffffffffffffffffff826115d9565b61161e86836115d9565b95508019841693508086168417925050509392505050565b5f819050919050565b5f61165961165461164f8461134f565b611636565b61134f565b9050919050565b5f819050919050565b6116728361163f565b61168661167e82611660565b8484546115e5565b825550505050565b5f5f905090565b61169d61168e565b6116a8818484611669565b505050565b5b818110156116cb576116c05f82611695565b6001810190506116ae565b5050565b601f821115611710576116e1816115b8565b6116ea846115ca565b810160208510156116f9578190505b61170d611705856115ca565b8301826116ad565b50505b505050565b5f82821c905092915050565b5f6117305f1984600802611715565b1980831691505092915050565b5f6117488383611721565b9150826002028217905092915050565b611761826110a0565b67ffffffffffffffff81111561177a57611779611149565b5b6117848254611588565b61178f8282856116cf565b5f60209050601f8311600181146117c0575f84156117ae578287015190505b6117b8858261173d565b86555061181f565b601f1984166117ce866115b8565b5f5b828110156117f5578489015182556001820191506020850194506020810190506117d0565b86831015611812578489015161180e601f891682611721565b8355505b6001600288020188555050505b505050505050565b5f819050919050565b5f67ffffffffffffffff82169050919050565b5f61185d61185861185384611827565b611636565b611830565b9050919050565b61186d81611843565b82525050565b5f6020820190506118865f830184611864565b92915050565b5f60608201905061189f5f8301866114f5565b6118ac60208301856113f3565b6118b960408301846113f3565b949350505050565b7f4e487b71000000000000000000000000000000000000000000000000000000005f52601160045260245ffd5b5f6118f88261134f565b91506119038361134f565b925082820190508082111561191b5761191a6118c1565b5b9291505056fea264697066735822122095803e93204fb1451d0ecbe2e4e4dd4aecc0b9794622083dce573ee337fad45964736f6c634300081c00336080604052348015600e575f5ffd5b50610c798061001c5f395ff3fe608060405234801561000f575f5ffd5b5060043610610060575f3560e01c806305fe138b1461006457806338d52e0f146100805780635fcbd2851461009e5780638da5cb5b146100bc578063c95f9d0e146100da578063f8c8765e146100f6575b5f5ffd5b61007e60048036038101906100799190610936565b610112565b005b61008861023b565b6040516100959190610983565b60405180910390f35b6100a6610262565b6040516100b39190610983565b60405180910390f35b6100c461028a565b6040516100d19190610983565b60405180910390f35b6100f460048036038101906100ef9190610936565b6102b2565b005b610110600480360381019061010b919061099c565b6103dd565b005b60015f9054906101000a900473ffffffffffffffffffffffffffffffffffffffff1673ffffffffffffffffffffffffffffffffffffffff166379cc679033846040518363ffffffff1660e01b815260040161016e929190610a0f565b5f604051808303815f87803b158015610185575f5ffd5b505af1158015610197573d5f5f3e3d5ffd5b505050505f5f9054906101000a900473ffffffffffffffffffffffffffffffffffffffff1673ffffffffffffffffffffffffffffffffffffffff1663a9059cbb82846040518363ffffffff1660e01b81526004016101f6929190610a0f565b6020604051808303815f875af1158015610212573d5f5f3e3d5ffd5b505050506040513d601f19601f820116820180604052508101906102369190610a6b565b505050565b5f5f5f9054906101000a900473ffffffffffffffffffffffffffffffffffffffff16905090565b5f60015f9054906101000a900473ffffffffffffffffffffffffffffffffffffffff16905090565b5f60025f9054906101000a900473ffffffffffffffffffffffffffffffffffffffff16905090565b5f5f9054906101000a900473ffffffffffffffffffffffffffffffffffffffff1673ffffffffffffffffffffffffffffffffffffffff166323b872dd3330856040518463ffffffff1660e01b815260040161030f93929190610a96565b6020604051808303815f875af115801561032b573d5f5f3e3d5ffd5b505050506040513d601f19601f8201168201806040525081019061034f9190610a6b565b5060015f9054906101000a900473ffffffffffffffffffffffffffffffffffffffff1673ffffffffffffffffffffffffffffffffffffffff166340c10f1982846040518363ffffffff1660e01b81526004016103ac929190610a0f565b5f604051808303815f87803b1580156103c3575f5ffd5b505af11580156103d5573d5f5f3e3d5ffd5b505050505050565b5f6103e6610762565b90505f815f0160089054906101000a900460ff161590505f825f015f9054906101000a900467ffffffffffffffff1690505f5f8267ffffffffffffffff1614801561042e5750825b90505f60018367ffffffffffffffff1614801561046157505f3073ffffffffffffffffffffffffffffffffffffffff163b145b90508115801561046f575080155b156104a6576040517ff92ee8a900000000000000000000000000000000000000000000000000000000815260040160405180910390fd5b6001855f015f6101000a81548167ffffffffffffffff021916908367ffffffffffffffff16021790555083156104f3576001855f0160086101000a81548160ff0219169083151502179055505b885f5f6101000a81548173ffffffffffffffffffffffffffffffffffffffff021916908373ffffffffffffffffffffffffffffffffffffffff1602179055505f5f9054906101000a900473ffffffffffffffffffffffffffffffffffffffff1673ffffffffffffffffffffffffffffffffffffffff1663095ea7b3897fffffffffffffffffffffffffffffffffffffffffffffffffffffffffffffffff6040518363ffffffff1660e01b81526004016105ad929190610a0f565b6020604051808303815f875af11580156105c9573d5f5f3e3d5ffd5b505050506040513d601f19601f820116820180604052508101906105ed9190610a6b565b506105f787610775565b60015f6101000a81548173ffffffffffffffffffffffffffffffffffffffff021916908373ffffffffffffffffffffffffffffffffffffffff16021790555060015f9054906101000a900473ffffffffffffffffffffffffffffffffffffffff1673ffffffffffffffffffffffffffffffffffffffff1663077f224a306040518263ffffffff1660e01b81526004016106909190610b6f565b5f604051808303815f87803b1580156106a7575f5ffd5b505af11580156106b9573d5f5f3e3d5ffd5b505050508560025f6101000a81548173ffffffffffffffffffffffffffffffffffffffff021916908373ffffffffffffffffffffffffffffffffffffffff1602179055508315610757575f855f0160086101000a81548160ff0219169083151502179055507fc7f505b2f371ae2175ee4913f4499e1f2633a7b5936321eed1cdaeb6115181d2600160405161074e9190610c03565b60405180910390a15b505050505050505050565b5f5f61076c610787565b90508091505090565b5f610780825f6107b0565b9050919050565b5f7ff0c57e16840df040f15088dc2f81fe391c3923bec73e23a9662efc9c229c6a005f1b905090565b5f814710156107f85747826040517fcf4791810000000000000000000000000000000000000000000000000000000081526004016107ef929190610c1c565b60405180910390fd5b763d602d80600a3d3981f3363d3d373d3d3d363d730000008360601b60e81c175f526e5af43d82803e903d91602b57fd5bf38360781b176020526037600983f090505f73ffffffffffffffffffffffffffffffffffffffff168173ffffffffffffffffffffffffffffffffffffffff160361089f576040517fb06ebf3d00000000000000000000000000000000000000000000000000000000815260040160405180910390fd5b92915050565b5f5ffd5b5f819050919050565b6108bb816108a9565b81146108c5575f5ffd5b50565b5f813590506108d6816108b2565b92915050565b5f73ffffffffffffffffffffffffffffffffffffffff82169050919050565b5f610905826108dc565b9050919050565b610915816108fb565b811461091f575f5ffd5b50565b5f813590506109308161090c565b92915050565b5f5f6040838503121561094c5761094b6108a5565b5b5f610959858286016108c8565b925050602061096a85828601610922565b9150509250929050565b61097d816108fb565b82525050565b5f6020820190506109965f830184610974565b92915050565b5f5f5f5f608085870312156109b4576109b36108a5565b5b5f6109c187828801610922565b94505060206109d287828801610922565b93505060406109e387828801610922565b92505060606109f487828801610922565b91505092959194509250565b610a09816108a9565b82525050565b5f604082019050610a225f830185610974565b610a2f6020830184610a00565b9392505050565b5f8115159050919050565b610a4a81610a36565b8114610a54575f5ffd5b50565b5f81519050610a6581610a41565b92915050565b5f60208284031215610a8057610a7f6108a5565b5b5f610a8d84828501610a57565b91505092915050565b5f606082019050610aa95f830186610974565b610ab66020830185610974565b610ac36040830184610a00565b949350505050565b5f82825260208201905092915050565b7f504d57204c5000000000000000000000000000000000000000000000000000005f82015250565b5f610b0f600683610acb565b9150610b1a82610adb565b602082019050919050565b7f504d572d4c5000000000000000000000000000000000000000000000000000005f82015250565b5f610b59600683610acb565b9150610b6482610b25565b602082019050919050565b5f6060820190508181035f830152610b8681610b03565b90508181036020830152610b9981610b4d565b9050610ba86040830184610974565b92915050565b5f819050919050565b5f67ffffffffffffffff82169050919050565b5f819050919050565b5f610bed610be8610be384610bae565b610bca565b610bb7565b9050919050565b610bfd81610bd3565b82525050565b5f602082019050610c165f830184610bf4565b92915050565b5f604082019050610c2f5f830185610a00565b610c3c6020830184610a00565b939250505056fea26469706673582212201b93c5cbf7ccca64eccd55027a13af5a133b17423258876b7bdc1d2b5798bfe864736f6c634300081c0033",
  "linkReferences": {},
  "deployedLinkReferences": {},
  "immutableReferences": {
    "11163": [
      {
        "length": 32,
        "start": 413
      },
      {
        "length": 32,
        "start": 865
      },
      {
        "length": 32,
        "start": 1011
      },
      {
        "length": 32,
        "start": 5049
      }
    ],
    "11165": [
      {
        "length": 32,
        "start": 449
      },
      {
        "length": 32,
        "start": 4979
      }
    ]
  },
  "inputSourceName": "project/contracts/ProveMeWrong.sol",
  "buildInfoId": "30c9b337e42347a31decf3183997ec3a5e91b46f"
}