{
  "_format": "hh3-artifact-1",
  "contractName": "ProveMeWrong",
  "sourceName": "contracts/ProveMeWrong.sol",
  "abi": [
    {
      "inputs": [],
      "stateMutability": "nonpayable",
      "type": "constructor"
    },
    {
      "inputs": [],
      "name": "FailedDeployment",
      "type": "error"
    },
    {
      "inputs": [
        {
          "internalType": "uint256",
          "name": "balance",
          "type": "uint256"
        },
        {
          "internalType": "uint256",
          "name": "needed",
          "type": "uint256"
        }
      ],
      "name": "InsufficientBalance",
      "type": "error"
    },
    {
      "inputs": [
        {
          "internalType": "bytes32",
          "name": "marketId",
          "type": "bytes32"
        },
        {
          "internalType": "bytes32",
          "name": "requestHash",
          "type": "bytes32"
        },
        {
          "internalType": "uint256",
          "name": "yesPrice",
          "type": "uint256"
        },
        {
          "internalType": "uint256",
          "name": "noPrice",
          "type": "uint256"
        },
        {
          "internalType": "address",
          "name": "pool",
          "type": "address"
        }
      ],
      "name": "createMarket",
      "outputs": [],
      "stateMutability": "nonpayable",
      "type": "function"
    },
    {
      "inputs": [
        {
          "internalType": "address",
          "name": "asset",
          "type": "address"
        },
        {
          "internalType": "address",
          "name": "owner",
          "type": "address"
        }
      ],
      "name": "createPool",
      "outputs": [
        {
          "internalType": "address",
          "name": "",
          "type": "address"
        }
      ],
      "stateMutability": "nonpayable",
      "type": "function"
    },
    {
      "inputs": [
        {
          "internalType": "bytes32",
          "name": "marketId",
          "type": "bytes32"
        },
        {
          "internalType": "uint256",
          "name": "amount",
          "type": "uint256"
        },
        {
          "internalType": "bool",
          "name": "outcome",
          "type": "bool"
        }
      ],
      "name": "mint",
      "outputs": [],
      "stateMutability": "nonpayable",
      "type": "function"
    },
    {
      "inputs": [],
      "name": "pmw20Implementation",
      "outputs": [
        {
          "internalType": "address",
          "name": "",
          "type": "address"
        }
      ],
      "stateMutability": "view",
      "type": "function"
    },
    {
      "inputs": [],
      "name": "pmwPoolImplementation",
      "outputs": [
        {
          "internalType": "address",
          "name": "",
          "type": "address"
        }
      ],
      "stateMutability": "view",
      "type": "function"
    },
    {
      "inputs": [
        {
          "internalType": "bytes32",
          "name": "marketId",
          "type": "bytes32"
        },
        {
          "internalType": "address",
          "name": "account",
          "type": "address"
        }
      ],
      "name": "redeem",
      "outputs": [],
      "stateMutability": "nonpayable",
      "type": "function"
    },
    {
      "inputs": [
        {
          "internalType": "bytes32",
          "name": "marketId",
          "type": "bytes32"
        },
        {
          "components": [
            {
              "internalType": "bytes32[]",
              "name": "merkleProof",
              "type": "bytes32[]"
            },
            {
              "components": [
                {
                  "internalType": "bytes32",
                  "name": "attestationType",
                  "type": "bytes32"
                },
                {
                  "internalType": "bytes32",
                  "name": "sourceId",
                  "type": "bytes32"
                },
                {
                  "internalType": "uint64",
                  "name": "votingRound",
                  "type": "uint64"
                },
                {
                  "internalType": "uint64",
                  "name": "lowestUsedTimestamp",
                  "type": "uint64"
                },
                {
                  "components": [
                    {
                      "internalType": "string",
                      "name": "url",
                      "type": "string"
                    },
                    {
                      "internalType": "string",
                      "name": "httpMethod",
                      "type": "string"
                    },
                    {
                      "internalType": "string",
                      "name": "headers",
                      "type": "string"
                    },
                    {
                      "internalType": "string",
                      "name": "queryParams",
                      "type": "string"
                    },
                    {
                      "internalType": "string",
                      "name": "body",
                      "type": "string"
                    },
                    {
                      "internalType": "string",
                      "name": "postProcessJq",
                      "type": "string"
                    },
                    {
                      "internalType": "string",
                      "name": "abiSignature",
                      "type": "string"
                    }
                  ],
                  "internalType": "struct IWeb2Json.RequestBody",
                  "name": "requestBody",
                  "type": "tuple"
                },
                {
                  "components": [
                    {
                      "internalType": "bytes",
                      "name": "abiEncodedData",
                      "type": "bytes"
                    }
                  ],
                  "internalType": "struct IWeb2Json.ResponseBody",
                  "name": "responseBody",
                  "type": "tuple"
                }
              ],
              "internalType": "struct IWeb2Json.Response",
              "name": "data",
              "type": "tuple"
            }
          ],
          "internalType": "struct IWeb2Json.Proof",
          "name": "data",
          "type": "tuple"
        }
      ],
      "name": "resolveMarket",
      "outputs": [],
      "stateMutability": "nonpayable",
      "type": "function"
    }
  ],
  "bytecode": "0x60c060405234801561000f575f5ffd5b5060405161001c906100c7565b604051809103905ff080158015610035573d5f5f3e3d5ffd5b5073ffffffffffffffffffffffffffffffffffffffff1660808173ffffffffffffffffffffffffffffffffffffffff1681525050604051610075906100d4565b604051809103905ff08015801561008e573d5f5f3e3d5ffd5b5073ffffffffffffffffffffffffffffffffffffffff1660a08173ffffffffffffffffffffffffffffffffffffffff16815250506100e1565b611e6280612ee383390190565b610c9580614d4583390190565b60805160a051612dc561011e5f395f8181610181015261124101525f818161015d01528181610321015281816103b301526112870152612dc55ff3fe608060405234801561000f575f5ffd5b506004361061007b575f3560e01c80639a99adb3116100595780639a99adb3146100d7578063beb6d081146100f3578063cc3bf9e91461010f578063e34336151461012b5761007b565b80634f4aa01a1461007f5780635b3a53141461009d57806371bb890c146100bb575b5f5ffd5b61008761015b565b6040516100949190611944565b60405180910390f35b6100a561017f565b6040516100b29190611944565b60405180910390f35b6100d560048036038101906100d091906119fe565b6101a3565b005b6100f160048036038101906100ec9190611a97565b6105c9565b005b61010d60048036038101906101089190611b26565b610ab1565b005b61012960048036038101906101249190611b76565b610edb565b005b61014560048036038101906101409190611bb4565b61123a565b6040516101529190611944565b60405180910390f35b7f000000000000000000000000000000000000000000000000000000000000000081565b7f000000000000000000000000000000000000000000000000000000000000000081565b6101ac856112fd565b156101ec576040517f08c379a00000000000000000000000000000000000000000000000000000000081526004016101e390611c4c565b60405180910390fd5b3373ffffffffffffffffffffffffffffffffffffffff168173ffffffffffffffffffffffffffffffffffffffff16638da5cb5b6040518163ffffffff1660e01b8152600401602060405180830381865afa15801561024c573d5f5f3e3d5ffd5b505050506040513d601f19601f820116820180604052508101906102709190611c7e565b73ffffffffffffffffffffffffffffffffffffffff16146102c6576040517f08c379a00000000000000000000000000000000000000000000000000000000081526004016102bd90611cf3565b60405180910390fd5b670de0b6b3a764000082846102db9190611d3e565b1461031b576040517f08c379a000000000000000000000000000000000000000000000000000000000815260040161031290611dbb565b60405180910390fd5b5f6103457f000000000000000000000000000000000000000000000000000000000000000061131d565b90508073ffffffffffffffffffffffffffffffffffffffff1663077f224a306040518263ffffffff1660e01b81526004016103809190611e6d565b5f604051808303815f87803b158015610397575f5ffd5b505af11580156103a9573d5f5f3e3d5ffd5b505050505f6103d77f000000000000000000000000000000000000000000000000000000000000000061131d565b90508073ffffffffffffffffffffffffffffffffffffffff1663077f224a306040518263ffffffff1660e01b81526004016104129190611f40565b5f604051808303815f87803b158015610429575f5ffd5b505af115801561043b573d5f5f3e3d5ffd5b505050506040518060e001604052808781526020018373ffffffffffffffffffffffffffffffffffffffff1681526020018273ffffffffffffffffffffffffffffffffffffffff1681526020018681526020018581526020018473ffffffffffffffffffffffffffffffffffffffff16815260200160028152505f5f8981526020019081526020015f205f820151815f01556020820151816001015f6101000a81548173ffffffffffffffffffffffffffffffffffffffff021916908373ffffffffffffffffffffffffffffffffffffffff1602179055506040820151816002015f6101000a81548173ffffffffffffffffffffffffffffffffffffffff021916908373ffffffffffffffffffffffffffffffffffffffff160217905550606082015181600301556080820151816004015560a0820151816005015f6101000a81548173ffffffffffffffffffffffffffffffffffffffff021916908373ffffffffffffffffffffffffffffffffffffffff16021790555060c0820151816006015590505050505050505050565b6105d28161132f565b610611576040517f08c379a000000000000000000000000000000000000000000000000000000000815260040161060890611fc9565b60405180910390fd5b61061a826112fd565b610659576040517f08c379a000000000000000000000000000000000000000000000000000000000815260040161065090612031565b60405180910390fd5b610662826113b6565b156106a2576040517f08c379a000000000000000000000000000000000000000000000000000000000815260040161069990612099565b60405180910390fd5b6109b98180602001906106b591906120c3565b80608001906106c491906120ea565b805f01906106d29190612111565b8080601f0160208091040260200160405190810160405280939291908181526020018383808284375f81840152601f19601f8201169050808301925050505050505082806020019061072491906120c3565b806080019061073391906120ea565b80602001906107429190612111565b8080601f0160208091040260200160405190810160405280939291908181526020018383808284375f81840152601f19601f8201169050808301925050505050505083806020019061079491906120c3565b80608001906107a391906120ea565b80604001906107b29190612111565b8080601f0160208091040260200160405190810160405280939291908181526020018383808284375f81840152601f19601f8201169050808301925050505050505084806020019061080491906120c3565b806080019061081391906120ea565b80606001906108229190612111565b8080601f0160208091040260200160405190810160405280939291908181526020018383808284375f81840152601f19601f8201169050808301925050505050505085806020019061087491906120c3565b806080019061088391906120ea565b80608001906108929190612111565b8080601f0160208091040260200160405190810160405280939291908181526020018383808284375f81840152601f19601f820116905080830192505050505050508680602001906108e491906120c3565b80608001906108f391906120ea565b8060a001906109029190612111565b8080601f0160208091040260200160405190810160405280939291908181526020018383808284375f81840152601f19601f8201169050808301925050505050505087806020019061095491906120c3565b806080019061096391906120ea565b8060c001906109729190612111565b8080601f0160208091040260200160405190810160405280939291908181526020018383808284375f81840152601f19601f820116905080830192505050505050506113d6565b5f5f8481526020019081526020015f205f015414610a0c576040517f08c379a0000000000000000000000000000000000000000000000000000000008152600401610a03906121bd565b60405180910390fd5b5f818060200190610a1d91906120c3565b8060a00190610a2c91906121db565b805f0190610a3a9190612202565b810190610a479190612329565b90505f815f0151905060028103610a93576040517f08c379a0000000000000000000000000000000000000000000000000000000008152600401610a8a9061239e565b60405180910390fd5b805f5f8681526020019081526020015f206006018190555050505050565b610aba836112fd565b610af9576040517f08c379a0000000000000000000000000000000000000000000000000000000008152600401610af090612031565b60405180910390fd5b610b02836113b6565b15610b42576040517f08c379a0000000000000000000000000000000000000000000000000000000008152600401610b3990612099565b60405180910390fd5b5f8203610b84576040517f08c379a0000000000000000000000000000000000000000000000000000000008152600401610b7b90612406565b60405180910390fd5b5f670de0b6b3a764000066038d7ea4c6800084610ba19190612424565b610bab9190612492565b90505f8184610bba91906124c2565b90505f5f8681526020019081526020015f206005015f9054906101000a900473ffffffffffffffffffffffffffffffffffffffff1673ffffffffffffffffffffffffffffffffffffffff166338d52e0f6040518163ffffffff1660e01b8152600401602060405180830381865afa158015610c37573d5f5f3e3d5ffd5b505050506040513d601f19601f82011682018060405250810190610c5b9190611c7e565b73ffffffffffffffffffffffffffffffffffffffff1663a9059cbb5f5f8881526020019081526020015f206005015f9054906101000a900473ffffffffffffffffffffffffffffffffffffffff16866040518363ffffffff1660e01b8152600401610cc7929190612504565b6020604051808303815f875af1158015610ce3573d5f5f3e3d5ffd5b505050506040513d601f19601f82011682018060405250810190610d07919061253f565b505f6001151584151503610d4e575f5f8781526020019081526020015f2060030154670de0b6b3a764000083610d3d9190612424565b610d479190612492565b9050610d83565b5f5f8781526020019081526020015f2060040154670de0b6b3a764000083610d769190612424565b610d809190612492565b90505b6001151584151503610e2e575f5f8781526020019081526020015f206001015f9054906101000a900473ffffffffffffffffffffffffffffffffffffffff1673ffffffffffffffffffffffffffffffffffffffff166340c10f1933836040518363ffffffff1660e01b8152600401610dfc929190612504565b5f604051808303815f87803b158015610e13575f5ffd5b505af1158015610e25573d5f5f3e3d5ffd5b50505050610ec9565b5f5f8781526020019081526020015f206002015f9054906101000a900473ffffffffffffffffffffffffffffffffffffffff1673ffffffffffffffffffffffffffffffffffffffff166340c10f1933836040518363ffffffff1660e01b8152600401610e9b929190612504565b5f604051808303815f87803b158015610eb2575f5ffd5b505af1158015610ec4573d5f5f3e3d5ffd5b505050505b610ed38685611417565b505050505050565b610ee4826112fd565b610f23576040517f08c379a0000000000000000000000000000000000000000000000000000000008152600401610f1a90612031565b60405180910390fd5b610f2c826113b6565b610f6b576040517f08c379a0000000000000000000000000000000000000000000000000000000008152600401610f629061239e565b60405180910390fd5b5f60015f5f8581526020019081526020015f206006015414610fbf575f5f8481526020019081526020015f206002015f9054906101000a900473ffffffffffffffffffffffffffffffffffffffff16610ff3565b5f5f8481526020019081526020015f206001015f9054906101000a900473ffffffffffffffffffffffffffffffffffffffff165b90505f8173ffffffffffffffffffffffffffffffffffffffff166370a08231846040518263ffffffff1660e01b815260040161102f9190611944565b602060405180830381865afa15801561104a573d5f5f3e3d5ffd5b505050506040513d601f19601f8201168201806040525081019061106e919061257e565b90505f81036110b2576040517f08c379a00000000000000000000000000000000000000000000000000000000081526004016110a9906125f3565b60405180910390fd5b8173ffffffffffffffffffffffffffffffffffffffff166379cc679084836040518363ffffffff1660e01b81526004016110ed929190612504565b5f604051808303815f87803b158015611104575f5ffd5b505af1158015611116573d5f5f3e3d5ffd5b505050505f5f8581526020019081526020015f206005015f9054906101000a900473ffffffffffffffffffffffffffffffffffffffff1673ffffffffffffffffffffffffffffffffffffffff166338d52e0f6040518163ffffffff1660e01b8152600401602060405180830381865afa158015611195573d5f5f3e3d5ffd5b505050506040513d601f19601f820116820180604052508101906111b99190611c7e565b73ffffffffffffffffffffffffffffffffffffffff1663a9059cbb84836040518363ffffffff1660e01b81526004016111f3929190612504565b6020604051808303815f875af115801561120f573d5f5f3e3d5ffd5b505050506040513d601f19601f82011682018060405250810190611233919061253f565b5050505050565b5f5f6112657f000000000000000000000000000000000000000000000000000000000000000061131d565b90508073ffffffffffffffffffffffffffffffffffffffff1663f8c8765e85307f0000000000000000000000000000000000000000000000000000000000000000876040518563ffffffff1660e01b81526004016112c69493929190612611565b5f604051808303815f87803b1580156112dd575f5ffd5b505af11580156112ef573d5f5f3e3d5ffd5b505050508091505092915050565b5f5f5f1b5f5f8481526020019081526020015f205f015414159050919050565b5f611328825f61175a565b9050919050565b5f61133861184f565b73ffffffffffffffffffffffffffffffffffffffff1663d2d3a41f836040518263ffffffff1660e01b81526004016113709190612bca565b602060405180830381865afa15801561138b573d5f5f3e3d5ffd5b505050506040513d601f19601f820116820180604052508101906113af919061253f565b9050919050565b5f60025f5f8481526020019081526020015f206006015414159050919050565b5f878787878787876040516020016113f49796959493929190612c3a565b604051602081830303815290604052805190602001209050979650505050505050565b5f5f5f8481526020019081526020015f2090505f816001015f9054906101000a900473ffffffffffffffffffffffffffffffffffffffff1673ffffffffffffffffffffffffffffffffffffffff166318160ddd6040518163ffffffff1660e01b8152600401602060405180830381865afa158015611497573d5f5f3e3d5ffd5b505050506040513d601f19601f820116820180604052508101906114bb919061257e565b90505f826002015f9054906101000a900473ffffffffffffffffffffffffffffffffffffffff1673ffffffffffffffffffffffffffffffffffffffff166318160ddd6040518163ffffffff1660e01b8152600401602060405180830381865afa15801561152a573d5f5f3e3d5ffd5b505050506040513d601f19601f8201168201806040525081019061154e919061257e565b90505f818361155d9190611d3e565b90505f66038d7ea4c680009050670de0b6b3a76400008211156115d557600a670de0b6b3a76400008361159091906124c2565b61159a9190612492565b670de0b6b3a76400006115ad9190611d3e565b670de0b6b3a764000066038d7ea4c680006115c89190612424565b6115d29190612492565b90505b6001151586151503611664575f670de0b6b3a76400008660030154836115fb9190612424565b6116059190612492565b90505f670de0b6b3a76400008760040154846116219190612424565b61162b9190612492565b905081876003015461163d9190611d3e565b876003018190555080876004015461165591906124c2565b876004018190555050506116e3565b5f670de0b6b3a764000086600401548361167e9190612424565b6116889190612492565b90505f670de0b6b3a76400008760030154846116a49190612424565b6116ae9190612492565b90508187600401546116c09190611d3e565b87600401819055508087600301546116d891906124c2565b876003018190555050505b5f856004015486600301546116f89190611d3e565b905080670de0b6b3a764000087600301546117139190612424565b61171d9190612492565b866003018190555080670de0b6b3a7640000876004015461173e9190612424565b6117489190612492565b86600401819055505050505050505050565b5f814710156117a25747826040517fcf479181000000000000000000000000000000000000000000000000000000008152600401611799929190612cd8565b60405180910390fd5b763d602d80600a3d3981f3363d3d373d3d3d363d730000008360601b60e81c175f526e5af43d82803e903d91602b57fd5bf38360781b176020526037600983f090505f73ffffffffffffffffffffffffffffffffffffffff168173ffffffffffffffffffffffffffffffffffffffff1603611849576040517fb06ebf3d00000000000000000000000000000000000000000000000000000000815260040160405180910390fd5b92915050565b5f73ad67fe66660fb8dfe9d6b1b4240d8650e30f601973ffffffffffffffffffffffffffffffffffffffff1663159354a260405160200161188f90612d49565b604051602081830303815290604052805190602001206040518263ffffffff1660e01b81526004016118c19190612d76565b602060405180830381865afa1580156118dc573d5f5f3e3d5ffd5b505050506040513d601f19601f820116820180604052508101906119009190611c7e565b905090565b5f73ffffffffffffffffffffffffffffffffffffffff82169050919050565b5f61192e82611905565b9050919050565b61193e81611924565b82525050565b5f6020820190506119575f830184611935565b92915050565b5f604051905090565b5f5ffd5b5f5ffd5b5f819050919050565b6119808161196e565b811461198a575f5ffd5b50565b5f8135905061199b81611977565b92915050565b5f819050919050565b6119b3816119a1565b81146119bd575f5ffd5b50565b5f813590506119ce816119aa565b92915050565b6119dd81611924565b81146119e7575f5ffd5b50565b5f813590506119f8816119d4565b92915050565b5f5f5f5f5f60a08688031215611a1757611a16611966565b5b5f611a248882890161198d565b9550506020611a358882890161198d565b9450506040611a46888289016119c0565b9350506060611a57888289016119c0565b9250506080611a68888289016119ea565b9150509295509295909350565b5f5ffd5b5f60408284031215611a8e57611a8d611a75565b5b81905092915050565b5f5f60408385031215611aad57611aac611966565b5b5f611aba8582860161198d565b925050602083013567ffffffffffffffff811115611adb57611ada61196a565b5b611ae785828601611a79565b9150509250929050565b5f8115159050919050565b611b0581611af1565b8114611b0f575f5ffd5b50565b5f81359050611b2081611afc565b92915050565b5f5f5f60608486031215611b3d57611b3c611966565b5b5f611b4a8682870161198d565b9350506020611b5b868287016119c0565b9250506040611b6c86828701611b12565b9150509250925092565b5f5f60408385031215611b8c57611b8b611966565b5b5f611b998582860161198d565b9250506020611baa858286016119ea565b9150509250929050565b5f5f60408385031215611bca57611bc9611966565b5b5f611bd7858286016119ea565b9250506020611be8858286016119ea565b9150509250929050565b5f82825260208201905092915050565b7f4d61726b657420616c72656164792065786973747300000000000000000000005f82015250565b5f611c36601583611bf2565b9150611c4182611c02565b602082019050919050565b5f6020820190508181035f830152611c6381611c2a565b9050919050565b5f81519050611c78816119d4565b92915050565b5f60208284031215611c9357611c92611966565b5b5f611ca084828501611c6a565b91505092915050565b7f506f6f6c206e6f74206f776e65642062792063616c6c657200000000000000005f82015250565b5f611cdd601883611bf2565b9150611ce882611ca9565b602082019050919050565b5f6020820190508181035f830152611d0a81611cd1565b9050919050565b7f4e487b71000000000000000000000000000000000000000000000000000000005f52601160045260245ffd5b5f611d48826119a1565b9150611d53836119a1565b9250828201905080821115611d6b57611d6a611d11565b5b92915050565b7f507269636573206d7573742073756d20746f20313030250000000000000000005f82015250565b5f611da5601783611bf2565b9150611db082611d71565b602082019050919050565b5f6020820190508181035f830152611dd281611d99565b9050919050565b7f79657300000000000000000000000000000000000000000000000000000000005f82015250565b5f611e0d600383611bf2565b9150611e1882611dd9565b602082019050919050565b7f59455300000000000000000000000000000000000000000000000000000000005f82015250565b5f611e57600383611bf2565b9150611e6282611e23565b602082019050919050565b5f6060820190508181035f830152611e8481611e01565b90508181036020830152611e9781611e4b565b9050611ea66040830184611935565b92915050565b7f6e6f0000000000000000000000000000000000000000000000000000000000005f82015250565b5f611ee0600283611bf2565b9150611eeb82611eac565b602082019050919050565b7f4e4f0000000000000000000000000000000000000000000000000000000000005f82015250565b5f611f2a600283611bf2565b9150611f3582611ef6565b602082019050919050565b5f6060820190508181035f830152611f5781611ed4565b90508181036020830152611f6a81611f1e565b9050611f796040830184611935565b92915050565b7f496e76616c69642070726f6f66000000000000000000000000000000000000005f82015250565b5f611fb3600d83611bf2565b9150611fbe82611f7f565b602082019050919050565b5f6020820190508181035f830152611fe081611fa7565b9050919050565b7f4d61726b657420646f6573206e6f7420657869737400000000000000000000005f82015250565b5f61201b601583611bf2565b915061202682611fe7565b602082019050919050565b5f6020820190508181035f8301526120488161200f565b9050919050565b7f4d61726b657420616c7265616479207265736f6c7665640000000000000000005f82015250565b5f612083601783611bf2565b915061208e8261204f565b602082019050919050565b5f6020820190508181035f8301526120b081612077565b9050919050565b5f5ffd5b5f5ffd5b5f5ffd5b5f8235600160c0038336030381126120de576120dd6120b7565b5b80830191505092915050565b5f8235600160e003833603038112612105576121046120b7565b5b80830191505092915050565b5f5f8335600160200384360303811261212d5761212c6120b7565b5b80840192508235915067ffffffffffffffff82111561214f5761214e6120bb565b5b60208301925060018202360383131561216b5761216a6120bf565b5b509250929050565b7f496e76616c6964207265717565737420686173680000000000000000000000005f82015250565b5f6121a7601483611bf2565b91506121b282612173565b602082019050919050565b5f6020820190508181035f8301526121d48161219b565b9050919050565b5f823560016020038336030381126121f6576121f56120b7565b5b80830191505092915050565b5f5f8335600160200384360303811261221e5761221d6120b7565b5b80840192508235915067ffffffffffffffff8211156122405761223f6120bb565b5b60208301925060018202360383131561225c5761225b6120bf565b5b509250929050565b5f5ffd5b5f601f19601f8301169050919050565b7f4e487b71000000000000000000000000000000000000000000000000000000005f52604160045260245ffd5b6122ae82612268565b810181811067ffffffffffffffff821117156122cd576122cc612278565b5b80604052505050565b5f6122df61195d565b90506122eb82826122a5565b919050565b5f6020828403121561230557612304612264565b5b61230f60206122d6565b90505f61231e848285016119c0565b5f8301525092915050565b5f6020828403121561233e5761233d611966565b5b5f61234b848285016122f0565b91505092915050565b7f4d61726b6574206e6f74207265736f6c766564000000000000000000000000005f82015250565b5f612388601383611bf2565b915061239382612354565b602082019050919050565b5f6020820190508181035f8301526123b58161237c565b9050919050565b7f416d6f756e74206d7573742062652067726561746572207468616e20300000005f82015250565b5f6123f0601d83611bf2565b91506123fb826123bc565b602082019050919050565b5f6020820190508181035f83015261241d816123e4565b9050919050565b5f61242e826119a1565b9150612439836119a1565b9250828202612447816119a1565b9150828204841483151761245e5761245d611d11565b5b5092915050565b7f4e487b71000000000000000000000000000000000000000000000000000000005f52601260045260245ffd5b5f61249c826119a1565b91506124a7836119a1565b9250826124b7576124b6612465565b5b828204905092915050565b5f6124cc826119a1565b91506124d7836119a1565b92508282039050818111156124ef576124ee611d11565b5b92915050565b6124fe816119a1565b82525050565b5f6040820190506125175f830185611935565b61252460208301846124f5565b9392505050565b5f8151905061253981611afc565b92915050565b5f6020828403121561255457612553611966565b5b5f6125618482850161252b565b91505092915050565b5f81519050612578816119aa565b92915050565b5f6020828403121561259357612592611966565b5b5f6125a08482850161256a565b91505092915050565b7f4e6f20746f6b656e7320746f2072656465656d000000000000000000000000005f82015250565b5f6125dd601383611bf2565b91506125e8826125a9565b602082019050919050565b5f6020820190508181035f83015261260a816125d1565b9050919050565b5f6080820190506126245f830187611935565b6126316020830186611935565b61263e6040830185611935565b61264b6060830184611935565b95945050505050565b5f5ffd5b5f5ffd5b5f5ffd5b5f5f8335600160200384360303811261267c5761267b61265c565b5b83810192508235915060208301925067ffffffffffffffff8211156126a4576126a3612654565b5b6020820236038313156126ba576126b9612658565b5b509250929050565b5f82825260208201905092915050565b5f5ffd5b82818337505050565b5f6126ea83856126c2565b93507f07ffffffffffffffffffffffffffffffffffffffffffffffffffffffffffffff83111561271d5761271c6126d2565b5b60208302925061272e8385846126d6565b82840190509392505050565b5f8235600160c0038336030381126127555761275461265c565b5b82810191505092915050565b5f61276f602084018461198d565b905092915050565b6127808161196e565b82525050565b5f67ffffffffffffffff82169050919050565b6127a281612786565b81146127ac575f5ffd5b50565b5f813590506127bd81612799565b92915050565b5f6127d160208401846127af565b905092915050565b6127e281612786565b82525050565b5f8235600160e0038336030381126128035761280261265c565b5b82810191505092915050565b5f5f8335600160200384360303811261282b5761282a61265c565b5b83810192508235915060208301925067ffffffffffffffff82111561285357612852612654565b5b60018202360383131561286957612868612658565b5b509250929050565b5f82825260208201905092915050565b828183375f83830152505050565b5f61289a8385612871565b93506128a7838584612881565b6128b083612268565b840190509392505050565b5f60e083016128cc5f84018461280f565b8583035f8701526128de83828461288f565b925050506128ef602084018461280f565b858303602087015261290283828461288f565b92505050612913604084018461280f565b858303604087015261292683828461288f565b92505050612937606084018461280f565b858303606087015261294a83828461288f565b9250505061295b608084018461280f565b858303608087015261296e83828461288f565b9250505061297f60a084018461280f565b85830360a087015261299283828461288f565b925050506129a360c084018461280f565b85830360c08701526129b683828461288f565b925050508091505092915050565b5f823560016020038336030381126129df576129de61265c565b5b82810191505092915050565b5f5f83356001602003843603038112612a0757612a0661265c565b5b83810192508235915060208301925067ffffffffffffffff821115612a2f57612a2e612654565b5b600182023603831315612a4557612a44612658565b5b509250929050565b5f82825260208201905092915050565b5f612a688385612a4d565b9350612a75838584612881565b612a7e83612268565b840190509392505050565b5f60208301612a9a5f8401846129eb565b8583035f870152612aac838284612a5d565b925050508091505092915050565b5f60c08301612acb5f840184612761565b612ad75f860182612777565b50612ae56020840184612761565b612af26020860182612777565b50612b0060408401846127c3565b612b0d60408601826127d9565b50612b1b60608401846127c3565b612b2860608601826127d9565b50612b3660808401846127e8565b8482036080860152612b4882826128bb565b915050612b5860a08401846129c4565b84820360a0860152612b6a8282612a89565b9150508091505092915050565b5f60408301612b885f840184612660565b8583035f870152612b9a8382846126df565b92505050612bab602084018461273a565b8482036020860152612bbd8282612aba565b9150508091505092915050565b5f6020820190508181035f830152612be28184612b77565b905092915050565b5f81519050919050565b8281835e5f83830152505050565b5f612c0c82612bea565b612c168185611bf2565b9350612c26818560208601612bf4565b612c2f81612268565b840191505092915050565b5f60e0820190508181035f830152612c52818a612c02565b90508181036020830152612c668189612c02565b90508181036040830152612c7a8188612c02565b90508181036060830152612c8e8187612c02565b90508181036080830152612ca28186612c02565b905081810360a0830152612cb68185612c02565b905081810360c0830152612cca8184612c02565b905098975050505050505050565b5f604082019050612ceb5f8301856124f5565b612cf860208301846124f5565b9392505050565b7f466463566572696669636174696f6e00000000000000000000000000000000005f82015250565b5f612d33600f83611bf2565b9150612d3e82612cff565b602082019050919050565b5f6020820190508181035f830152612d6081612d27565b9050919050565b612d708161196e565b82525050565b5f602082019050612d895f830184612d67565b9291505056fea2646970667358221220e212d50d12871fe390a720941eff3d31d53cd6373bad9cc4253750f2c28f1abe64736f6c634300081c0033608060405234801561000f575f5ffd5b50600160405180602001604052805f81525060405180602001604052805f815250816003908161003f91906103d7565b50806004908161004f91906103d7565b5050505f73ffffffffffffffffffffffffffffffffffffffff168173ffffffffffffffffffffffffffffffffffffffff16036100c2575f6040517f1e4fbdf70000000000000000000000000000000000000000000000000000000081526004016100b991906104e5565b60405180910390fd5b6100d1816100d760201b60201c565b506104fe565b5f60055f9054906101000a900473ffffffffffffffffffffffffffffffffffffffff1690508160055f6101000a81548173ffffffffffffffffffffffffffffffffffffffff021916908373ffffffffffffffffffffffffffffffffffffffff1602179055508173ffffffffffffffffffffffffffffffffffffffff168173ffffffffffffffffffffffffffffffffffffffff167f8be0079c531659141344cd1fd0a4f28419497f9722a3daafe3b4186f6b6457e060405160405180910390a35050565b5f81519050919050565b7f4e487b71000000000000000000000000000000000000000000000000000000005f52604160045260245ffd5b7f4e487b71000000000000000000000000000000000000000000000000000000005f52602260045260245ffd5b5f600282049050600182168061021557607f821691505b602082108103610228576102276101d1565b5b50919050565b5f819050815f5260205f209050919050565b5f6020601f8301049050919050565b5f82821b905092915050565b5f6008830261028a7fffffffffffffffffffffffffffffffffffffffffffffffffffffffffffffffff8261024f565b610294868361024f565b95508019841693508086168417925050509392505050565b5f819050919050565b5f819050919050565b5f6102d86102d36102ce846102ac565b6102b5565b6102ac565b9050919050565b5f819050919050565b6102f1836102be565b6103056102fd826102df565b84845461025b565b825550505050565b5f5f905090565b61031c61030d565b6103278184846102e8565b505050565b5b8181101561034a5761033f5f82610314565b60018101905061032d565b5050565b601f82111561038f576103608161022e565b61036984610240565b81016020851015610378578190505b61038c61038485610240565b83018261032c565b50505b505050565b5f82821c905092915050565b5f6103af5f1984600802610394565b1980831691505092915050565b5f6103c783836103a0565b9150826002028217905092915050565b6103e08261019a565b67ffffffffffffffff8111156103f9576103f86101a4565b5b61040382546101fe565b61040e82828561034e565b5f60209050601f83116001811461043f575f841561042d578287015190505b61043785826103bc565b86555061049e565b601f19841661044d8661022e565b5f5b828110156104745784890151825560018201915060208501945060208101905061044f565b86831015610491578489015161048d601f8916826103a0565b8355505b6001600288020188555050505b505050505050565b5f73ffffffffffffffffffffffffffffffffffffffff82169050919050565b5f6104cf826104a6565b9050919050565b6104df816104c5565b82525050565b5f6020820190506104f85f8301846104d6565b92915050565b6119578061050b5f395ff3fe608060405234801561000f575f5ffd5b50600436106100fe575f3560e01c806370a082311161009557806395d89b411161006457806395d89b4114610284578063a9059cbb146102a2578063dd62ed3e146102d2578063f2fde38b14610302576100fe565b806370a0823114610210578063715018a61461024057806379cc67901461024a5780638da5cb5b14610266576100fe565b806323b872dd116100d157806323b872dd1461018a578063313ce567146101ba57806340c10f19146101d857806342966c68146101f4576100fe565b806306fdde0314610102578063077f224a14610120578063095ea7b31461013c57806318160ddd1461016c575b5f5ffd5b61010a61031e565b6040516101179190611110565b60405180910390f35b61013a600480360381019061013591906112c7565b6103ae565b005b61015660048036038101906101519190611382565b610551565b60405161016391906113da565b60405180910390f35b610174610573565b6040516101819190611402565b60405180910390f35b6101a4600480360381019061019f919061141b565b61057c565b6040516101b191906113da565b60405180910390f35b6101c26105aa565b6040516101cf9190611486565b60405180910390f35b6101f260048036038101906101ed9190611382565b6105b2565b005b61020e6004803603810190610209919061149f565b6105c8565b005b61022a600480360381019061022591906114ca565b6105d4565b6040516102379190611402565b60405180910390f35b610248610619565b005b610264600480360381019061025f9190611382565b61062c565b005b61026e610684565b60405161027b9190611504565b60405180910390f35b61028c6106ac565b6040516102999190611110565b60405180910390f35b6102bc60048036038101906102b79190611382565b61073c565b6040516102c991906113da565b60405180910390f35b6102ec60048036038101906102e7919061151d565b61075e565b6040516102f99190611402565b60405180910390f35b61031c600480360381019061031791906114ca565b6107e0565b005b60606006805461032d90611588565b80601f016020809104026020016040519081016040528092919081815260200182805461035990611588565b80156103a45780601f1061037b576101008083540402835291602001916103a4565b820191905f5260205f20905b81548152906001019060200180831161038757829003601f168201915b5050505050905090565b5f6103b7610864565b90505f815f0160089054906101000a900460ff161590505f825f015f9054906101000a900467ffffffffffffffff1690505f5f8267ffffffffffffffff161480156103ff5750825b90505f60018367ffffffffffffffff1614801561043257505f3073ffffffffffffffffffffffffffffffffffffffff163b145b905081158015610440575080155b15610477576040517ff92ee8a900000000000000000000000000000000000000000000000000000000815260040160405180910390fd5b6001855f015f6101000a81548167ffffffffffffffff021916908367ffffffffffffffff16021790555083156104c4576001855f0160086101000a81548160ff0219169083151502179055505b87600690816104d39190611758565b5086600790816104e39190611758565b506104ed86610877565b8315610547575f855f0160086101000a81548160ff0219169083151502179055507fc7f505b2f371ae2175ee4913f4499e1f2633a7b5936321eed1cdaeb6115181d2600160405161053e9190611873565b60405180910390a15b5050505050505050565b5f5f61055b61093a565b9050610568818585610941565b600191505092915050565b5f600254905090565b5f5f61058661093a565b9050610593858285610953565b61059e8585856109e6565b60019150509392505050565b5f6012905090565b6105ba610ad6565b6105c48282610b5d565b5050565b6105d181610bdc565b50565b5f5f5f8373ffffffffffffffffffffffffffffffffffffffff1673ffffffffffffffffffffffffffffffffffffffff1681526020019081526020015f20549050919050565b610621610ad6565b61062a5f610877565b565b610634610684565b73ffffffffffffffffffffffffffffffffffffffff163373ffffffffffffffffffffffffffffffffffffffff1603610675576106708282610bf0565b610680565b61067f8282610c6f565b5b5050565b5f60055f9054906101000a900473ffffffffffffffffffffffffffffffffffffffff16905090565b6060600780546106bb90611588565b80601f01602080910402602001604051908101604052809291908181526020018280546106e790611588565b80156107325780601f1061070957610100808354040283529160200191610732565b820191905f5260205f20905b81548152906001019060200180831161071557829003601f168201915b5050505050905090565b5f5f61074661093a565b90506107538185856109e6565b600191505092915050565b5f60015f8473ffffffffffffffffffffffffffffffffffffffff1673ffffffffffffffffffffffffffffffffffffffff1681526020019081526020015f205f8373ffffffffffffffffffffffffffffffffffffffff1673ffffffffffffffffffffffffffffffffffffffff1681526020019081526020015f2054905092915050565b6107e8610ad6565b5f73ffffffffffffffffffffffffffffffffffffffff168173ffffffffffffffffffffffffffffffffffffffff1603610858575f6040517f1e4fbdf700000000000000000000000000000000000000000000000000000000815260040161084f9190611504565b60405180910390fd5b61086181610877565b50565b5f5f61086e610c8f565b90508091505090565b5f60055f9054906101000a900473ffffffffffffffffffffffffffffffffffffffff1690508160055f6101000a81548173ffffffffffffffffffffffffffffffffffffffff021916908373ffffffffffffffffffffffffffffffffffffffff1602179055508173ffffffffffffffffffffffffffffffffffffffff168173ffffffffffffffffffffffffffffffffffffffff167f8be0079c531659141344cd1fd0a4f28419497f9722a3daafe3b4186f6b6457e060405160405180910390a35050565b5f33905090565b61094e8383836001610cb8565b505050565b5f61095e848461075e565b90507fffffffffffffffffffffffffffffffffffffffffffffffffffffffffffffffff8110156109e057818110156109d1578281836040517ffb8f41b20000000000000000000000000000000000000000000000000000000081526004016109c89392919061188c565b60405180910390fd5b6109df84848484035f610cb8565b5b50505050565b5f73ffffffffffffffffffffffffffffffffffffffff168373ffffffffffffffffffffffffffffffffffffffff1603610a56575f6040517f96c6fd1e000000000000000000000000000000000000000000000000000000008152600401610a4d9190611504565b60405180910390fd5b5f73ffffffffffffffffffffffffffffffffffffffff168273ffffffffffffffffffffffffffffffffffffffff1603610ac6575f6040517fec442f05000000000000000000000000000000000000000000000000000000008152600401610abd9190611504565b60405180910390fd5b610ad1838383610e87565b505050565b610ade61093a565b73ffffffffffffffffffffffffffffffffffffffff16610afc610684565b73ffffffffffffffffffffffffffffffffffffffff1614610b5b57610b1f61093a565b6040517f118cdaa7000000000000000000000000000000000000000000000000000000008152600401610b529190611504565b60405180910390fd5b565b5f73ffffffffffffffffffffffffffffffffffffffff168273ffffffffffffffffffffffffffffffffffffffff1603610bcd575f6040517fec442f05000000000000000000000000000000000000000000000000000000008152600401610bc49190611504565b60405180910390fd5b610bd85f8383610e87565b5050565b610bed610be761093a565b82610bf0565b50565b5f73ffffffffffffffffffffffffffffffffffffffff168273ffffffffffffffffffffffffffffffffffffffff1603610c60575f6040517f96c6fd1e000000000000000000000000000000000000000000000000000000008152600401610c579190611504565b60405180910390fd5b610c6b825f83610e87565b5050565b610c8182610c7b61093a565b83610953565b610c8b8282610bf0565b5050565b5f7ff0c57e16840df040f15088dc2f81fe391c3923bec73e23a9662efc9c229c6a005f1b905090565b5f73ffffffffffffffffffffffffffffffffffffffff168473ffffffffffffffffffffffffffffffffffffffff1603610d28575f6040517fe602df05000000000000000000000000000000000000000000000000000000008152600401610d1f9190611504565b60405180910390fd5b5f73ffffffffffffffffffffffffffffffffffffffff168373ffffffffffffffffffffffffffffffffffffffff1603610d98575f6040517f94280d62000000000000000000000000000000000000000000000000000000008152600401610d8f9190611504565b60405180910390fd5b8160015f8673ffffffffffffffffffffffffffffffffffffffff1673ffffffffffffffffffffffffffffffffffffffff1681526020019081526020015f205f8573ffffffffffffffffffffffffffffffffffffffff1673ffffffffffffffffffffffffffffffffffffffff1681526020019081526020015f20819055508015610e81578273ffffffffffffffffffffffffffffffffffffffff168473ffffffffffffffffffffffffffffffffffffffff167f8c5be1e5ebec7d5bd14f71427d1e84f3dd0314c0f7b2291e5b200ac8c7c3b92584604051610e789190611402565b60405180910390a35b50505050565b5f73ffffffffffffffffffffffffffffffffffffffff168373ffffffffffffffffffffffffffffffffffffffff1603610ed7578060025f828254610ecb91906118ee565b92505081905550610fa5565b5f5f5f8573ffffffffffffffffffffffffffffffffffffffff1673ffffffffffffffffffffffffffffffffffffffff1681526020019081526020015f2054905081811015610f60578381836040517fe450d38c000000000000000000000000000000000000000000000000000000008152600401610f579392919061188c565b60405180910390fd5b8181035f5f8673ffffffffffffffffffffffffffffffffffffffff1673ffffffffffffffffffffffffffffffffffffffff1681526020019081526020015f2081905550505b5f73ffffffffffffffffffffffffffffffffffffffff168273ffffffffffffffffffffffffffffffffffffffff1603610fec578060025f8282540392505081905550611036565b805f5f8473ffffffffffffffffffffffffffffffffffffffff1673ffffffffffffffffffffffffffffffffffffffff1681526020019081526020015f205f82825401925050819055505b8173ffffffffffffffffffffffffffffffffffffffff168373ffffffffffffffffffffffffffffffffffffffff167fddf252ad1be2c89b69c2b068fc378daa952ba7f163c4a11628f55a4df523b3ef836040516110939190611402565b60405180910390a3505050565b5f81519050919050565b5f82825260208201905092915050565b8281835e5f83830152505050565b5f601f19601f8301169050919050565b5f6110e2826110a0565b6110ec81856110aa565b93506110fc8185602086016110ba565b611105816110c8565b840191505092915050565b5f6020820190508181035f83015261112881846110d8565b905092915050565b5f604051905090565b5f5ffd5b5f5ffd5b5f5ffd5b5f5ffd5b7f4e487b71000000000000000000000000000000000000000000000000000000005f52604160045260245ffd5b61117f826110c8565b810181811067ffffffffffffffff8211171561119e5761119d611149565b5b80604052505050565b5f6111b0611130565b90506111bc8282611176565b919050565b5f67ffffffffffffffff8211156111db576111da611149565b5b6111e4826110c8565b9050602081019050919050565b828183375f83830152505050565b5f61121161120c846111c1565b6111a7565b90508281526020810184848401111561122d5761122c611145565b5b6112388482856111f1565b509392505050565b5f82601f83011261125457611253611141565b5b81356112648482602086016111ff565b91505092915050565b5f73ffffffffffffffffffffffffffffffffffffffff82169050919050565b5f6112968261126d565b9050919050565b6112a68161128c565b81146112b0575f5ffd5b50565b5f813590506112c18161129d565b92915050565b5f5f5f606084860312156112de576112dd611139565b5b5f84013567ffffffffffffffff8111156112fb576112fa61113d565b5b61130786828701611240565b935050602084013567ffffffffffffffff8111156113285761132761113d565b5b61133486828701611240565b9250506040611345868287016112b3565b9150509250925092565b5f819050919050565b6113618161134f565b811461136b575f5ffd5b50565b5f8135905061137c81611358565b92915050565b5f5f6040838503121561139857611397611139565b5b5f6113a5858286016112b3565b92505060206113b68582860161136e565b9150509250929050565b5f8115159050919050565b6113d4816113c0565b82525050565b5f6020820190506113ed5f8301846113cb565b92915050565b6113fc8161134f565b82525050565b5f6020820190506114155f8301846113f3565b92915050565b5f5f5f6060848603121561143257611431611139565b5b5f61143f868287016112b3565b9350506020611450868287016112b3565b92505060406114618682870161136e565b9150509250925092565b5f60ff82169050919050565b6114808161146b565b82525050565b5f6020820190506114995f830184611477565b92915050565b5f602082840312156114b4576114b3611139565b5b5f6114c18482850161136e565b91505092915050565b5f602082840312156114df576114de611139565b5b5f6114ec848285016112b3565b91505092915050565b6114fe8161128c565b82525050565b5f6020820190506115175f8301846114f5565b92915050565b5f5f6040838503121561153357611532611139565b5b5f611540858286016112b3565b9250506020611551858286016112b3565b9150509250929050565b7f4e487b71000000000000000000000000000000000000000000000000000000005f52602260045260245ffd5b5f600282049050600182168061159f57607f821691505b6020821081036115b2576115b161155b565b5b50919050565b5f819050815f5260205f209050919050565b5f6020601f8301049050919050565b5f82821b905092915050565b5f600883026116147fffffffffffffffffffffffffffffffffffffffffffffffffffffffffffffffff826115d9565b61161e86836115d9565b95508019841693508086168417925050509392505050565b5f819050919050565b5f61165961165461164f8461134f565b611636565b61134f565b9050919050565b5f819050919050565b6116728361163f565b61168661167e82611660565b8484546115e5565b825550505050565b5f5f905090565b61169d61168e565b6116a8818484611669565b505050565b5b818110156116cb576116c05f82611695565b6001810190506116ae565b5050565b601f821115611710576116e1816115b8565b6116ea846115ca565b810160208510156116f9578190505b61170d611705856115ca565b8301826116ad565b50505b505050565b5f82821c905092915050565b5f6117305f1984600802611715565b1980831691505092915050565b5f6117488383611721565b9150826002028217905092915050565b611761826110a0565b67ffffffffffffffff81111561177a57611779611149565b5b6117848254611588565b61178f8282856116cf565b5f60209050601f8311600181146117c0575f84156117ae578287015190505b6117b8858261173d565b86555061181f565b601f1984166117ce866115b8565b5f5b828110156117f5578489015182556001820191506020850194506020810190506117d0565b86831015611812578489015161180e601f891682611721565b8355505b6001600288020188555050505b505050505050565b5f819050919050565b5f67ffffffffffffffff82169050919050565b5f61185d61185861185384611827565b611636565b611830565b9050919050565b61186d81611843565b82525050565b5f6020820190506118865f830184611864565b92915050565b5f60608201905061189f5f8301866114f5565b6118ac60208301856113f3565b6118b960408301846113f3565b949350505050565b7f4e487b71000000000000000000000000000000000000000000000000000000005f52601160045260245ffd5b5f6118f88261134f565b91506119038361134f565b925082820190508082111561191b5761191a6118c1565b5b9291505056fea264697066735822122095803e93204fb1451d0ecbe2e4e4dd4aecc0b9794622083dce573ee337fad45964736f6c634300081c00336080604052348015600e575f5ffd5b50610c798061001c5f395ff3fe608060405234801561000f575f5ffd5b5060043610610060575f3560e01c806305fe138b1461006457806338d52e0f146100805780635fcbd2851461009e5780638da5cb5b146100bc578063c95f9d0e146100da578063f8c8765e146100f6575b5f5ffd5b61007e60048036038101906100799190610936565b610112565b005b61008861023b565b6040516100959190610983565b60405180910390f35b6100a6610262565b6040516100b39190610983565b60405180910390f35b6100c461028a565b6040516100d19190610983565b60405180910390f35b6100f460048036038101906100ef9190610936565b6102b2565b005b610110600480360381019061010b919061099c565b6103dd565b005b60015f9054906101000a900473ffffffffffffffffffffffffffffffffffffffff1673ffffffffffffffffffffffffffffffffffffffff166379cc679033846040518363ffffffff1660e01b815260040161016e929190610a0f565b5f604051808303815f87803b158015610185575f5ffd5b505af1158015610197573d5f5f3e3d5ffd5b505050505f5f9054906101000a900473ffffffffffffffffffffffffffffffffffffffff1673ffffffffffffffffffffffffffffffffffffffff1663a9059cbb82846040518363ffffffff1660e01b81526004016101f6929190610a0f565b6020604051808303815f875af1158015610212573d5f5f3e3d5ffd5b505050506040513d601f19601f820116820180604052508101906102369190610a6b565b505050565b5f5f5f9054906101000a900473ffffffffffffffffffffffffffffffffffffffff16905090565b5f60015f9054906101000a900473ffffffffffffffffffffffffffffffffffffffff16905090565b5f60025f9054906101000a900473ffffffffffffffffffffffffffffffffffffffff16905090565b5f5f9054906101000a900473ffffffffffffffffffffffffffffffffffffffff1673ffffffffffffffffffffffffffffffffffffffff166323b872dd3330856040518463ffffffff1660e01b815260040161030f93929190610a96565b6020604051808303815f875af115801561032b573d5f5f3e3d5ffd5b505050506040513d601f19601f8201168201806040525081019061034f9190610a6b565b5060015f9054906101000a900473ffffffffffffffffffffffffffffffffffffffff1673ffffffffffffffffffffffffffffffffffffffff166340c10f1982846040518363ffffffff1660e01b81526004016103ac929190610a0f565b5f604051808303815f87803b1580156103c3575f5ffd5b505af11580156103d5573d5f5f3e3d5ffd5b505050505050565b5f6103e6610762565b90505f815f0160089054906101000a900460ff161590505f825f015f9054906101000a900467ffffffffffffffff1690505f5f8267ffffffffffffffff1614801561042e5750825b90505f60018367ffffffffffffffff1614801561046157505f3073ffffffffffffffffffffffffffffffffffffffff163b145b90508115801561046f575080155b156104a6576040517ff92ee8a900000000000000000000000000000000000000000000000000000000815260040160405180910390fd5b6001855f015f6101000a81548167ffffffffffffffff021916908367ffffffffffffffff16021790555083156104f3576001855f0160086101000a81548160ff0219169083151502179055505b885f5f6101000a81548173ffffffffffffffffffffffffffffffffffffffff021916908373ffffffffffffffffffffffffffffffffffffffff1602179055505f5f9054906101000a900473ffffffffffffffffffffffffffffffffffffffff1673ffffffffffffffffffffffffffffffffffffffff1663095ea7b3897fffffffffffffffffffffffffffffffffffffffffffffffffffffffffffffffff6040518363ffffffff1660e01b81526004016105ad929190610a0f565b6020604051808303815f875af11580156105c9573d5f5f3e3d5ffd5b505050506040513d601f19601f820116820180604052508101906105ed9190610a6b565b506105f787610775565b60015f6101000a81548173ffffffffffffffffffffffffffffffffffffffff021916908373ffffffffffffffffffffffffffffffffffffffff16021790555060015f9054906101000a900473ffffffffffffffffffffffffffffffffffffffff1673ffffffffffffffffffffffffffffffffffffffff1663077f224a306040518263ffffffff1660e01b81526004016106909190610b6f565b5f604051808303815f87803b1580156106a7575f5ffd5b505af11580156106b9573d5f5f3e3d5ffd5b505050508560025f6101000a81548173ffffffffffffffffffffffffffffffffffffffff021916908373ffffffffffffffffffffffffffffffffffffffff1602179055508315610757575f855f0160086101000a81548160ff0219169083151502179055507fc7f505b2f371ae2175ee4913f4499e1f2633a7b5936321eed1cdaeb6115181d2600160405161074e9190610c03565b60405180910390a15b505050505050505050565b5f5f61076c610787565b90508091505090565b5f610780825f6107b0565b9050919050565b5f7ff0c57e16840df040f15088dc2f81fe391c3923bec73e23a9662efc9c229c6a005f1b905090565b5f814710156107f85747826040517fcf4791810000000000000000000000000000000000000000000000000000000081526004016107ef929190610c1c565b60405180910390fd5b763d602d80600a3d3981f3363d3d373d3d3d363d730000008360601b60e81c175f526e5af43d82803e903d91602b57fd5bf38360781b176020526037600983f090505f73ffffffffffffffffffffffffffffffffffffffff168173ffffffffffffffffffffffffffffffffffffffff160361089f576040517fb06ebf3d00000000000000000000000000000000000000000000000000000000815260040160405180910390fd5b92915050565b5f5ffd5b5f819050919050565b6108bb816108a9565b81146108c5575f5ffd5b50565b5f813590506108d6816108b2565b92915050565b5f73ffffffffffffffffffffffffffffffffffffffff82169050919050565b5f610905826108dc565b9050919050565b610915816108fb565b811461091f575f5ffd5b50565b5f813590506109308161090c565b92915050565b5f5f6040838503121561094c5761094b6108a5565b5b5f610959858286016108c8565b925050602061096a85828601610922565b9150509250929050565b61097d816108fb565b82525050565b5f6020820190506109965f830184610974565b92915050565b5f5f5f5f608085870312156109b4576109b36108a5565b5b5f6109c187828801610922565b94505060206109d287828801610922565b93505060406109e387828801610922565b92505060606109f487828801610922565b91505092959194509250565b610a09816108a9565b82525050565b5f604082019050610a225f830185610974565b610a2f6020830184610a00565b9392505050565b5f8115159050919050565b610a4a81610a36565b8114610a54575f5ffd5b50565b5f81519050610a6581610a41565b92915050565b5f60208284031215610a8057610a7f6108a5565b5b5f610a8d84828501610a57565b91505092915050565b5f606082019050610aa95f830186610974565b610ab66020830185610974565b610ac36040830184610a00565b949350505050565b5f82825260208201905092915050565b7f504d57204c5000000000000000000000000000000000000000000000000000005f82015250565b5f610b0f600683610acb565b9150610b1a82610adb565b602082019050919050565b7f504d572d4c5000000000000000000000000000000000000000000000000000005f82015250565b5f610b59600683610acb565b9150610b6482610b25565b602082019050919050565b5f6060820190508181035f830152610b8681610b03565b90508181036020830152610b9981610b4d565b9050610ba86040830184610974565b92915050565b5f819050919050565b5f67ffffffffffffffff82169050919050565b5f819050919050565b5f610bed610be8610be384610bae565b610bca565b610bb7565b9050919050565b610bfd81610bd3565b82525050565b5f602082019050610c165f830184610bf4565b92915050565b5f604082019050610c2f5f830185610a00565b610c3c6020830184610a00565b939250505056fea26469706673582212201b93c5cbf7ccca64eccd55027a13af5a133b17423258876b7bdc1d2b5798bfe864736f6c634300081c0033",
  "linkReferences": {},
  "deployedLinkReferences": {},
  "immutableReferences": {
    "11163": [
      {
        "length": 32,
        "start": 349
      },
      {
        "length": 32,
        "start": 801
      },
      {
        "length": 32,
        "start": 947
      },
      {
        "length": 32,
        "start": 4743
      }
    ],
    "11165": [
      {
        "length": 32,
        "start": 385
      },
      {
        "length": 32,
        "start": 4673
      }
    ]
  },
  "inputSourceName": "project/contracts/ProveMeWrong.sol",
  "buildInfoId": "4f0a21e24bdccf333e8b51659da804145d6e7ef5"
}